{
  "address": "0x5FbDB2315678afecb367f032d93F642f64180aa3",
  "abi": [
    {
      "inputs": [],
      "stateMutability": "nonpayable",
      "type": "constructor"
    },
    {
      "inputs": [
        {
          "internalType": "string",
          "name": "gatewayId",
          "type": "string"
        },
        {
          "internalType": "string",
          "name": "gatewayName",
          "type": "string"
        },
        {
          "internalType": "string",
          "name": "lat",
          "type": "string"
        },
        {
          "internalType": "string",
          "name": "long",
          "type": "string"
        },
        {
          "internalType": "uint256",
          "name": "altitude",
          "type": "uint256"
        }
      ],
      "name": "addGateway",
      "outputs": [],
      "stateMutability": "nonpayable",
      "type": "function"
    },
    {
      "inputs": [
        {
          "internalType": "uint256",
          "name": "",
          "type": "uint256"
        }
      ],
      "name": "gateways",
      "outputs": [
        {
          "internalType": "string",
          "name": "id",
          "type": "string"
        },
        {
          "internalType": "string",
          "name": "name",
          "type": "string"
        },
        {
          "internalType": "string",
          "name": "lat",
          "type": "string"
        },
        {
          "internalType": "string",
          "name": "long",
          "type": "string"
        },
        {
          "internalType": "uint256",
          "name": "altitude",
          "type": "uint256"
        }
      ],
      "stateMutability": "view",
      "type": "function"
    },
    {
      "inputs": [],
      "name": "getMyGateways",
      "outputs": [
        {
          "components": [
            {
              "internalType": "string",
              "name": "id",
              "type": "string"
            },
            {
              "internalType": "string",
              "name": "name",
              "type": "string"
            },
            {
              "internalType": "string",
              "name": "lat",
              "type": "string"
            },
            {
              "internalType": "string",
              "name": "long",
              "type": "string"
            },
            {
              "internalType": "uint256",
              "name": "altitude",
              "type": "uint256"
            }
          ],
          "internalType": "struct Leafium.Gateway[]",
          "name": "",
          "type": "tuple[]"
        }
      ],
      "stateMutability": "view",
      "type": "function"
    }
  ],
  "transactionHash": "0x918777fdc3c4942189b0cc48905952c6779ac10f82b875c4a2e61cce7c0f4844",
  "args": [],
  "numDeployments": 1,
  "solcInputHash": "04a484c3405a96bbedbc057bb0c88d9d",
  "bytecode": "0x608060405234801561001057600080fd5b50610e7e806100206000396000f3fe608060405234801561001057600080fd5b50600436106100415760003560e01c806364c1705614610046578063741bf4a31461007a578063877d84b914610098575b600080fd5b610060600480360381019061005b91906108bb565b6100b4565b604051610071959493929190610990565b60405180910390f35b61008261031a565b60405161008f9190610ba5565b60405180910390f35b6100b260048036038101906100ad9190610cfc565b610607565b005b600181815481106100c457600080fd5b90600052602060002090600502016000915090508060000180546100e790610e16565b80601f016020809104026020016040519081016040528092919081815260200182805461011390610e16565b80156101605780601f1061013557610100808354040283529160200191610160565b820191906000526020600020905b81548152906001019060200180831161014357829003601f168201915b50505050509080600101805461017590610e16565b80601f01602080910402602001604051908101604052809291908181526020018280546101a190610e16565b80156101ee5780601f106101c3576101008083540402835291602001916101ee565b820191906000526020600020905b8154815290600101906020018083116101d157829003601f168201915b50505050509080600201805461020390610e16565b80601f016020809104026020016040519081016040528092919081815260200182805461022f90610e16565b801561027c5780601f106102515761010080835404028352916020019161027c565b820191906000526020600020905b81548152906001019060200180831161025f57829003601f168201915b50505050509080600301805461029190610e16565b80601f01602080910402602001604051908101604052809291908181526020018280546102bd90610e16565b801561030a5780601f106102df5761010080835404028352916020019161030a565b820191906000526020600020905b8154815290600101906020018083116102ed57829003601f168201915b5050505050908060040154905085565b60606000803373ffffffffffffffffffffffffffffffffffffffff1673ffffffffffffffffffffffffffffffffffffffff168152602001908152602001600020805480602002602001604051908101604052809291908181526020016000905b828210156105fe57838290600052602060002090600502016040518060a00160405290816000820180546103ad90610e16565b80601f01602080910402602001604051908101604052809291908181526020018280546103d990610e16565b80156104265780601f106103fb57610100808354040283529160200191610426565b820191906000526020600020905b81548152906001019060200180831161040957829003601f168201915b5050505050815260200160018201805461043f90610e16565b80601f016020809104026020016040519081016040528092919081815260200182805461046b90610e16565b80156104b85780601f1061048d576101008083540402835291602001916104b8565b820191906000526020600020905b81548152906001019060200180831161049b57829003601f168201915b505050505081526020016002820180546104d190610e16565b80601f01602080910402602001604051908101604052809291908181526020018280546104fd90610e16565b801561054a5780601f1061051f5761010080835404028352916020019161054a565b820191906000526020600020905b81548152906001019060200180831161052d57829003601f168201915b5050505050815260200160038201805461056390610e16565b80601f016020809104026020016040519081016040528092919081815260200182805461058f90610e16565b80156105dc5780601f106105b1576101008083540402835291602001916105dc565b820191906000526020600020905b8154815290600101906020018083116105bf57829003601f168201915b505050505081526020016004820154815250508152602001906001019061037a565b50505050905090565b60006040518060a001604052808781526020018681526020018581526020018481526020018381525090506001819080600181540180825580915050600190039060005260206000209060050201600090919091909150600082015181600001908051906020019061067a9291906107ce565b5060208201518160010190805190602001906106979291906107ce565b5060408201518160020190805190602001906106b49291906107ce565b5060608201518160030190805190602001906106d19291906107ce565b506080820151816004015550506000803373ffffffffffffffffffffffffffffffffffffffff1673ffffffffffffffffffffffffffffffffffffffff16815260200190815260200160002081908060018154018082558091505060019003906000526020600020906005020160009091909190915060008201518160000190805190602001906107629291906107ce565b50602082015181600101908051906020019061077f9291906107ce565b50604082015181600201908051906020019061079c9291906107ce565b5060608201518160030190805190602001906107b99291906107ce565b50608082015181600401555050505050505050565b8280546107da90610e16565b90600052602060002090601f0160209004810192826107fc5760008555610843565b82601f1061081557805160ff1916838001178555610843565b82800160010185558215610843579182015b82811115610842578251825591602001919060010190610827565b5b5090506108509190610854565b5090565b5b8082111561086d576000816000905550600101610855565b5090565b6000604051905090565b600080fd5b600080fd5b6000819050919050565b61089881610885565b81146108a357600080fd5b50565b6000813590506108b58161088f565b92915050565b6000602082840312156108d1576108d061087b565b5b60006108df848285016108a6565b91505092915050565b600081519050919050565b600082825260208201905092915050565b60005b83811015610922578082015181840152602081019050610907565b83811115610931576000848401525b50505050565b6000601f19601f8301169050919050565b6000610953826108e8565b61095d81856108f3565b935061096d818560208601610904565b61097681610937565b840191505092915050565b61098a81610885565b82525050565b600060a08201905081810360008301526109aa8188610948565b905081810360208301526109be8187610948565b905081810360408301526109d28186610948565b905081810360608301526109e68185610948565b90506109f56080830184610981565b9695505050505050565b600081519050919050565b600082825260208201905092915050565b6000819050602082019050919050565b600082825260208201905092915050565b6000610a47826108e8565b610a518185610a2b565b9350610a61818560208601610904565b610a6a81610937565b840191505092915050565b610a7e81610885565b82525050565b600060a0830160008301518482036000860152610aa18282610a3c565b91505060208301518482036020860152610abb8282610a3c565b91505060408301518482036040860152610ad58282610a3c565b91505060608301518482036060860152610aef8282610a3c565b9150506080830151610b046080860182610a75565b508091505092915050565b6000610b1b8383610a84565b905092915050565b6000602082019050919050565b6000610b3b826109ff565b610b458185610a0a565b935083602082028501610b5785610a1b565b8060005b85811015610b935784840389528151610b748582610b0f565b9450610b7f83610b23565b925060208a01995050600181019050610b5b565b50829750879550505050505092915050565b60006020820190508181036000830152610bbf8184610b30565b905092915050565b600080fd5b600080fd5b7f4e487b7100000000000000000000000000000000000000000000000000000000600052604160045260246000fd5b610c0982610937565b810181811067ffffffffffffffff82111715610c2857610c27610bd1565b5b80604052505050565b6000610c3b610871565b9050610c478282610c00565b919050565b600067ffffffffffffffff821115610c6757610c66610bd1565b5b610c7082610937565b9050602081019050919050565b82818337600083830152505050565b6000610c9f610c9a84610c4c565b610c31565b905082815260208101848484011115610cbb57610cba610bcc565b5b610cc6848285610c7d565b509392505050565b600082601f830112610ce357610ce2610bc7565b5b8135610cf3848260208601610c8c565b91505092915050565b600080600080600060a08688031215610d1857610d1761087b565b5b600086013567ffffffffffffffff811115610d3657610d35610880565b5b610d4288828901610cce565b955050602086013567ffffffffffffffff811115610d6357610d62610880565b5b610d6f88828901610cce565b945050604086013567ffffffffffffffff811115610d9057610d8f610880565b5b610d9c88828901610cce565b935050606086013567ffffffffffffffff811115610dbd57610dbc610880565b5b610dc988828901610cce565b9250506080610dda888289016108a6565b9150509295509295909350565b7f4e487b7100000000000000000000000000000000000000000000000000000000600052602260045260246000fd5b60006002820490506001821680610e2e57607f821691505b60208210811415610e4257610e41610de7565b5b5091905056fea2646970667358221220f5e7faf308a385ffe33bc920015deeb237fd01afeca7acf12d97458c3cbec34764736f6c63430008090033",
  "devdoc": {
    "kind": "dev",
    "methods": {},
    "version": 1
  },
  "userdoc": {
    "kind": "user",
    "methods": {},
    "version": 1
  },
  "storageLayout": {
    "storage": [
      {
        "astId": 18,
        "contract": "contracts/Leafium.sol:Leafium",
        "label": "userToGateways",
        "offset": 0,
        "slot": "0",
        "type": "t_mapping(t_address,t_array(t_struct(Gateway)12_storage)dyn_storage)"
      },
      {
        "astId": 22,
        "contract": "contracts/Leafium.sol:Leafium",
        "label": "gateways",
        "offset": 0,
        "slot": "1",
        "type": "t_array(t_struct(Gateway)12_storage)dyn_storage"
      }
    ],
    "types": {
      "t_address": {
        "encoding": "inplace",
        "label": "address",
        "numberOfBytes": "20"
      },
      "t_array(t_struct(Gateway)12_storage)dyn_storage": {
        "base": "t_struct(Gateway)12_storage",
        "encoding": "dynamic_array",
        "label": "struct Leafium.Gateway[]",
        "numberOfBytes": "32"
      },
      "t_mapping(t_address,t_array(t_struct(Gateway)12_storage)dyn_storage)": {
        "encoding": "mapping",
        "key": "t_address",
        "label": "mapping(address => struct Leafium.Gateway[])",
        "numberOfBytes": "32",
        "value": "t_array(t_struct(Gateway)12_storage)dyn_storage"
      },
      "t_string_storage": {
        "encoding": "bytes",
        "label": "string",
        "numberOfBytes": "32"
      },
      "t_struct(Gateway)12_storage": {
        "encoding": "inplace",
        "label": "struct Leafium.Gateway",
        "members": [
          {
            "astId": 3,
            "contract": "contracts/Leafium.sol:Leafium",
            "label": "id",
            "offset": 0,
            "slot": "0",
            "type": "t_string_storage"
          },
          {
            "astId": 5,
            "contract": "contracts/Leafium.sol:Leafium",
            "label": "name",
            "offset": 0,
            "slot": "1",
            "type": "t_string_storage"
          },
          {
            "astId": 7,
            "contract": "contracts/Leafium.sol:Leafium",
            "label": "lat",
            "offset": 0,
            "slot": "2",
            "type": "t_string_storage"
          },
          {
            "astId": 9,
            "contract": "contracts/Leafium.sol:Leafium",
            "label": "long",
            "offset": 0,
            "slot": "3",
            "type": "t_string_storage"
          },
          {
            "astId": 11,
            "contract": "contracts/Leafium.sol:Leafium",
            "label": "altitude",
            "offset": 0,
            "slot": "4",
            "type": "t_uint256"
          }
        ],
        "numberOfBytes": "160"
      },
      "t_uint256": {
        "encoding": "inplace",
        "label": "uint256",
        "numberOfBytes": "32"
      }
    }
  }
}