{
  "address": "0xe7f1725E7734CE288F8367e1Bb143E90bb3F0512",
  "abi": [
    {
      "inputs": [
        {
          "internalType": "address",
          "name": "tokenAddress",
          "type": "address"
        }
      ],
      "stateMutability": "nonpayable",
      "type": "constructor"
    },
    {
      "inputs": [
        {
          "internalType": "string",
          "name": "gatewayId",
          "type": "string"
        },
        {
          "internalType": "string",
          "name": "gatewayName",
          "type": "string"
        },
        {
          "internalType": "string",
          "name": "lat",
          "type": "string"
        },
        {
          "internalType": "string",
          "name": "long",
          "type": "string"
        },
        {
          "internalType": "uint256",
          "name": "altitude",
          "type": "uint256"
        }
      ],
      "name": "addGateway",
      "outputs": [],
      "stateMutability": "nonpayable",
      "type": "function"
    },
    {
      "inputs": [
        {
          "internalType": "string",
          "name": "gatewayId",
          "type": "string"
        }
      ],
      "name": "awake",
      "outputs": [],
      "stateMutability": "nonpayable",
      "type": "function"
    },
    {
      "inputs": [],
      "name": "getBalance",
      "outputs": [
        {
          "internalType": "uint256",
          "name": "",
          "type": "uint256"
        }
      ],
      "stateMutability": "view",
      "type": "function"
    },
    {
      "inputs": [],
      "name": "getGateways",
      "outputs": [
        {
          "components": [
            {
              "internalType": "string",
              "name": "id",
              "type": "string"
            },
            {
              "internalType": "string",
              "name": "name",
              "type": "string"
            },
            {
              "internalType": "string",
              "name": "lat",
              "type": "string"
            },
            {
              "internalType": "string",
              "name": "long",
              "type": "string"
            },
            {
              "internalType": "uint256",
              "name": "altitude",
              "type": "uint256"
            }
          ],
          "internalType": "struct Leafium.Gateway[]",
          "name": "",
          "type": "tuple[]"
        }
      ],
      "stateMutability": "view",
      "type": "function"
    },
    {
      "inputs": [],
      "name": "getMyGateways",
      "outputs": [
        {
          "components": [
            {
              "internalType": "string",
              "name": "id",
              "type": "string"
            },
            {
              "internalType": "string",
              "name": "name",
              "type": "string"
            },
            {
              "internalType": "string",
              "name": "lat",
              "type": "string"
            },
            {
              "internalType": "string",
              "name": "long",
              "type": "string"
            },
            {
              "internalType": "uint256",
              "name": "altitude",
              "type": "uint256"
            }
          ],
          "internalType": "struct Leafium.Gateway[]",
          "name": "",
          "type": "tuple[]"
        }
      ],
      "stateMutability": "view",
      "type": "function"
    }
  ],
  "transactionHash": "0x76c0f29c7c665bf552245f08ae9feac3d51723771a85d5fc46612edee3adce8f",
  "args": [
    "0x5FbDB2315678afecb367f032d93F642f64180aa3"
  ],
  "numDeployments": 1,
  "solcInputHash": "e667956066e5134e365f34a539be3b82",
  "bytecode": "0x60806040526802b5e3af16b1880000600455670de0b6b3a76400006005553480156200002a57600080fd5b506040516200187638038062001876833981810160405281019062000050919062000101565b806000806101000a81548173ffffffffffffffffffffffffffffffffffffffff021916908373ffffffffffffffffffffffffffffffffffffffff1602179055505062000133565b600080fd5b600073ffffffffffffffffffffffffffffffffffffffff82169050919050565b6000620000c9826200009c565b9050919050565b620000db81620000bc565b8114620000e757600080fd5b50565b600081519050620000fb81620000d0565b92915050565b6000602082840312156200011a576200011962000097565b5b60006200012a84828501620000ea565b91505092915050565b61173380620001436000396000f3fe608060405234801561001057600080fd5b50600436106100575760003560e01c806312065fe01461005c578063741bf4a31461007a578063877d84b914610098578063d19a653a146100b4578063d82778ce146100d0575b600080fd5b6100646100ee565b6040516100719190610f17565b60405180910390f35b61008261019f565b60405161008f9190611127565b60405180910390f35b6100b260048036038101906100ad91906112be565b61048d565b005b6100ce60048036038101906100c991906113a9565b61078d565b005b6100d8610baa565b6040516100e59190611127565b60405180910390f35b60008060009054906101000a900473ffffffffffffffffffffffffffffffffffffffff1673ffffffffffffffffffffffffffffffffffffffff166370a08231336040518263ffffffff1660e01b815260040161014a9190611433565b60206040518083038186803b15801561016257600080fd5b505afa158015610176573d6000803e3d6000fd5b505050506040513d601f19601f8201168201806040525081019061019a9190611463565b905090565b6060600160003373ffffffffffffffffffffffffffffffffffffffff1673ffffffffffffffffffffffffffffffffffffffff168152602001908152602001600020805480602002602001604051908101604052809291908181526020016000905b8282101561048457838290600052602060002090600502016040518060a0016040529081600082018054610233906114bf565b80601f016020809104026020016040519081016040528092919081815260200182805461025f906114bf565b80156102ac5780601f10610281576101008083540402835291602001916102ac565b820191906000526020600020905b81548152906001019060200180831161028f57829003601f168201915b505050505081526020016001820180546102c5906114bf565b80601f01602080910402602001604051908101604052809291908181526020018280546102f1906114bf565b801561033e5780601f106103135761010080835404028352916020019161033e565b820191906000526020600020905b81548152906001019060200180831161032157829003601f168201915b50505050508152602001600282018054610357906114bf565b80601f0160208091040260200160405190810160405280929190818152602001828054610383906114bf565b80156103d05780601f106103a5576101008083540402835291602001916103d0565b820191906000526020600020905b8154815290600101906020018083116103b357829003601f168201915b505050505081526020016003820180546103e9906114bf565b80601f0160208091040260200160405190810160405280929190818152602001828054610415906114bf565b80156104625780601f1061043757610100808354040283529160200191610462565b820191906000526020600020905b81548152906001019060200180831161044557829003601f168201915b5050505050815260200160048201548152505081526020019060010190610200565b50505050905090565b60006040518060a00160405280878152602001868152602001858152602001848152602001838152509050600015156002876040516104cc919061152d565b908152602001604051809103902060009054906101000a900460ff1615151461052a576040517f08c379a0000000000000000000000000000000000000000000000000000000008152600401610521906115a1565b60405180910390fd5b60038190806001815401808255809150506001900390600052602060002090600502016000909190919091506000820151816000019080519060200190610572929190610e5b565b50602082015181600101908051906020019061058f929190610e5b565b5060408201518160020190805190602001906105ac929190610e5b565b5060608201518160030190805190602001906105c9929190610e5b565b5060808201518160040155505060016002876040516105e8919061152d565b908152602001604051809103902060006101000a81548160ff021916908315150217905550600160003373ffffffffffffffffffffffffffffffffffffffff1673ffffffffffffffffffffffffffffffffffffffff1681526020019081526020016000208190806001815401808255809150506001900390600052602060002090600502016000909190919091506000820151816000019080519060200190610692929190610e5b565b5060208201518160010190805190602001906106af929190610e5b565b5060408201518160020190805190602001906106cc929190610e5b565b5060608201518160030190805190602001906106e9929190610e5b565b5060808201518160040155505060008054906101000a900473ffffffffffffffffffffffffffffffffffffffff1673ffffffffffffffffffffffffffffffffffffffff1663f8b71c64336004546040518363ffffffff1660e01b81526004016107539291906115c1565b600060405180830381600087803b15801561076d57600080fd5b505af1158015610781573d6000803e3d6000fd5b50505050505050505050565b6000600160003373ffffffffffffffffffffffffffffffffffffffff1673ffffffffffffffffffffffffffffffffffffffff168152602001908152602001600020805480602002602001604051908101604052809291908181526020016000905b82821015610a7257838290600052602060002090600502016040518060a0016040529081600082018054610821906114bf565b80601f016020809104026020016040519081016040528092919081815260200182805461084d906114bf565b801561089a5780601f1061086f5761010080835404028352916020019161089a565b820191906000526020600020905b81548152906001019060200180831161087d57829003601f168201915b505050505081526020016001820180546108b3906114bf565b80601f01602080910402602001604051908101604052809291908181526020018280546108df906114bf565b801561092c5780601f106109015761010080835404028352916020019161092c565b820191906000526020600020905b81548152906001019060200180831161090f57829003601f168201915b50505050508152602001600282018054610945906114bf565b80601f0160208091040260200160405190810160405280929190818152602001828054610971906114bf565b80156109be5780601f10610993576101008083540402835291602001916109be565b820191906000526020600020905b8154815290600101906020018083116109a157829003601f168201915b505050505081526020016003820180546109d7906114bf565b80601f0160208091040260200160405190810160405280929190818152602001828054610a03906114bf565b8015610a505780601f10610a2557610100808354040283529160200191610a50565b820191906000526020600020905b815481529060010190602001808311610a3357829003601f168201915b50505050508152602001600482015481525050815260200190600101906107ee565b5050505090506000805b8251811015610ad5578380519060200120838281518110610aa057610a9f6115ea565b5b602002602001015160000151805190602001201415610ac25760019150610ad5565b8080610acd90611648565b915050610a7c565b5080610b16576040517f08c379a0000000000000000000000000000000000000000000000000000000008152600401610b0d906116dd565b60405180910390fd5b60008054906101000a900473ffffffffffffffffffffffffffffffffffffffff1673ffffffffffffffffffffffffffffffffffffffff1663f8b71c64336005546040518363ffffffff1660e01b8152600401610b739291906115c1565b600060405180830381600087803b158015610b8d57600080fd5b505af1158015610ba1573d6000803e3d6000fd5b50505050505050565b60606003805480602002602001604051908101604052809291908181526020016000905b82821015610e5257838290600052602060002090600502016040518060a0016040529081600082018054610c01906114bf565b80601f0160208091040260200160405190810160405280929190818152602001828054610c2d906114bf565b8015610c7a5780601f10610c4f57610100808354040283529160200191610c7a565b820191906000526020600020905b815481529060010190602001808311610c5d57829003601f168201915b50505050508152602001600182018054610c93906114bf565b80601f0160208091040260200160405190810160405280929190818152602001828054610cbf906114bf565b8015610d0c5780601f10610ce157610100808354040283529160200191610d0c565b820191906000526020600020905b815481529060010190602001808311610cef57829003601f168201915b50505050508152602001600282018054610d25906114bf565b80601f0160208091040260200160405190810160405280929190818152602001828054610d51906114bf565b8015610d9e5780601f10610d7357610100808354040283529160200191610d9e565b820191906000526020600020905b815481529060010190602001808311610d8157829003601f168201915b50505050508152602001600382018054610db7906114bf565b80601f0160208091040260200160405190810160405280929190818152602001828054610de3906114bf565b8015610e305780601f10610e0557610100808354040283529160200191610e30565b820191906000526020600020905b815481529060010190602001808311610e1357829003601f168201915b5050505050815260200160048201548152505081526020019060010190610bce565b50505050905090565b828054610e67906114bf565b90600052602060002090601f016020900481019282610e895760008555610ed0565b82601f10610ea257805160ff1916838001178555610ed0565b82800160010185558215610ed0579182015b82811115610ecf578251825591602001919060010190610eb4565b5b509050610edd9190610ee1565b5090565b5b80821115610efa576000816000905550600101610ee2565b5090565b6000819050919050565b610f1181610efe565b82525050565b6000602082019050610f2c6000830184610f08565b92915050565b600081519050919050565b600082825260208201905092915050565b6000819050602082019050919050565b600081519050919050565b600082825260208201905092915050565b60005b83811015610f98578082015181840152602081019050610f7d565b83811115610fa7576000848401525b50505050565b6000601f19601f8301169050919050565b6000610fc982610f5e565b610fd38185610f69565b9350610fe3818560208601610f7a565b610fec81610fad565b840191505092915050565b61100081610efe565b82525050565b600060a08301600083015184820360008601526110238282610fbe565b9150506020830151848203602086015261103d8282610fbe565b915050604083015184820360408601526110578282610fbe565b915050606083015184820360608601526110718282610fbe565b91505060808301516110866080860182610ff7565b508091505092915050565b600061109d8383611006565b905092915050565b6000602082019050919050565b60006110bd82610f32565b6110c78185610f3d565b9350836020820285016110d985610f4e565b8060005b8581101561111557848403895281516110f68582611091565b9450611101836110a5565b925060208a019950506001810190506110dd565b50829750879550505050505092915050565b6000602082019050818103600083015261114181846110b2565b905092915050565b6000604051905090565b600080fd5b600080fd5b600080fd5b600080fd5b7f4e487b7100000000000000000000000000000000000000000000000000000000600052604160045260246000fd5b61119f82610fad565b810181811067ffffffffffffffff821117156111be576111bd611167565b5b80604052505050565b60006111d1611149565b90506111dd8282611196565b919050565b600067ffffffffffffffff8211156111fd576111fc611167565b5b61120682610fad565b9050602081019050919050565b82818337600083830152505050565b6000611235611230846111e2565b6111c7565b90508281526020810184848401111561125157611250611162565b5b61125c848285611213565b509392505050565b600082601f8301126112795761127861115d565b5b8135611289848260208601611222565b91505092915050565b61129b81610efe565b81146112a657600080fd5b50565b6000813590506112b881611292565b92915050565b600080600080600060a086880312156112da576112d9611153565b5b600086013567ffffffffffffffff8111156112f8576112f7611158565b5b61130488828901611264565b955050602086013567ffffffffffffffff81111561132557611324611158565b5b61133188828901611264565b945050604086013567ffffffffffffffff81111561135257611351611158565b5b61135e88828901611264565b935050606086013567ffffffffffffffff81111561137f5761137e611158565b5b61138b88828901611264565b925050608061139c888289016112a9565b9150509295509295909350565b6000602082840312156113bf576113be611153565b5b600082013567ffffffffffffffff8111156113dd576113dc611158565b5b6113e984828501611264565b91505092915050565b600073ffffffffffffffffffffffffffffffffffffffff82169050919050565b600061141d826113f2565b9050919050565b61142d81611412565b82525050565b60006020820190506114486000830184611424565b92915050565b60008151905061145d81611292565b92915050565b60006020828403121561147957611478611153565b5b60006114878482850161144e565b91505092915050565b7f4e487b7100000000000000000000000000000000000000000000000000000000600052602260045260246000fd5b600060028204905060018216806114d757607f821691505b602082108114156114eb576114ea611490565b5b50919050565b600081905092915050565b600061150782610f5e565b61151181856114f1565b9350611521818560208601610f7a565b80840191505092915050565b600061153982846114fc565b915081905092915050565b600082825260208201905092915050565b7f4761746577617920616c72656164792072656769737465726564210000000000600082015250565b600061158b601b83611544565b915061159682611555565b602082019050919050565b600060208201905081810360008301526115ba8161157e565b9050919050565b60006040820190506115d66000830185611424565b6115e36020830184610f08565b9392505050565b7f4e487b7100000000000000000000000000000000000000000000000000000000600052603260045260246000fd5b7f4e487b7100000000000000000000000000000000000000000000000000000000600052601160045260246000fd5b600061165382610efe565b91507fffffffffffffffffffffffffffffffffffffffffffffffffffffffffffffffff82141561168657611685611619565b5b600182019050919050565b7f47617465776179206e6f7420666f756e64210000000000000000000000000000600082015250565b60006116c7601283611544565b91506116d282611691565b602082019050919050565b600060208201905081810360008301526116f6816116ba565b905091905056fea2646970667358221220cc2a9dcde9cd21c2abccd217135d20e00c98ed09b88513bcd914f4849f6f922364736f6c63430008090033",
  "devdoc": {
    "kind": "dev",
    "methods": {},
    "version": 1
  },
  "userdoc": {
    "kind": "user",
    "methods": {},
    "version": 1
  },
  "storageLayout": {
    "storage": [
      {
        "astId": 728,
        "contract": "contracts/Leafium.sol:Leafium",
        "label": "token",
        "offset": 0,
        "slot": "0",
        "type": "t_contract(LeafiumToken)980"
      },
      {
        "astId": 734,
        "contract": "contracts/Leafium.sol:Leafium",
        "label": "userToGateways",
        "offset": 0,
        "slot": "1",
        "type": "t_mapping(t_address,t_array(t_struct(Gateway)725_storage)dyn_storage)"
      },
      {
        "astId": 738,
        "contract": "contracts/Leafium.sol:Leafium",
        "label": "gatewayExists",
        "offset": 0,
        "slot": "2",
        "type": "t_mapping(t_string_memory_ptr,t_bool)"
      },
      {
        "astId": 742,
        "contract": "contracts/Leafium.sol:Leafium",
        "label": "gateways",
        "offset": 0,
        "slot": "3",
        "type": "t_array(t_struct(Gateway)725_storage)dyn_storage"
      },
      {
        "astId": 750,
        "contract": "contracts/Leafium.sol:Leafium",
        "label": "reward",
        "offset": 0,
        "slot": "4",
        "type": "t_uint256"
      },
      {
        "astId": 758,
        "contract": "contracts/Leafium.sol:Leafium",
        "label": "awakeReward",
        "offset": 0,
        "slot": "5",
        "type": "t_uint256"
      }
    ],
    "types": {
      "t_address": {
        "encoding": "inplace",
        "label": "address",
        "numberOfBytes": "20"
      },
      "t_array(t_struct(Gateway)725_storage)dyn_storage": {
        "base": "t_struct(Gateway)725_storage",
        "encoding": "dynamic_array",
        "label": "struct Leafium.Gateway[]",
        "numberOfBytes": "32"
      },
      "t_bool": {
        "encoding": "inplace",
        "label": "bool",
        "numberOfBytes": "1"
      },
      "t_contract(LeafiumToken)980": {
        "encoding": "inplace",
        "label": "contract LeafiumToken",
        "numberOfBytes": "20"
      },
      "t_mapping(t_address,t_array(t_struct(Gateway)725_storage)dyn_storage)": {
        "encoding": "mapping",
        "key": "t_address",
        "label": "mapping(address => struct Leafium.Gateway[])",
        "numberOfBytes": "32",
        "value": "t_array(t_struct(Gateway)725_storage)dyn_storage"
      },
      "t_mapping(t_string_memory_ptr,t_bool)": {
        "encoding": "mapping",
        "key": "t_string_memory_ptr",
        "label": "mapping(string => bool)",
        "numberOfBytes": "32",
        "value": "t_bool"
      },
      "t_string_memory_ptr": {
        "encoding": "bytes",
        "label": "string",
        "numberOfBytes": "32"
      },
      "t_string_storage": {
        "encoding": "bytes",
        "label": "string",
        "numberOfBytes": "32"
      },
      "t_struct(Gateway)725_storage": {
        "encoding": "inplace",
        "label": "struct Leafium.Gateway",
        "members": [
          {
            "astId": 716,
            "contract": "contracts/Leafium.sol:Leafium",
            "label": "id",
            "offset": 0,
            "slot": "0",
            "type": "t_string_storage"
          },
          {
            "astId": 718,
            "contract": "contracts/Leafium.sol:Leafium",
            "label": "name",
            "offset": 0,
            "slot": "1",
            "type": "t_string_storage"
          },
          {
            "astId": 720,
            "contract": "contracts/Leafium.sol:Leafium",
            "label": "lat",
            "offset": 0,
            "slot": "2",
            "type": "t_string_storage"
          },
          {
            "astId": 722,
            "contract": "contracts/Leafium.sol:Leafium",
            "label": "long",
            "offset": 0,
            "slot": "3",
            "type": "t_string_storage"
          },
          {
            "astId": 724,
            "contract": "contracts/Leafium.sol:Leafium",
            "label": "altitude",
            "offset": 0,
            "slot": "4",
            "type": "t_uint256"
          }
        ],
        "numberOfBytes": "160"
      },
      "t_uint256": {
        "encoding": "inplace",
        "label": "uint256",
        "numberOfBytes": "32"
      }
    }
  }
}