{
  "address": "0x5FbDB2315678afecb367f032d93F642f64180aa3",
  "abi": [
    {
      "inputs": [],
      "stateMutability": "nonpayable",
      "type": "constructor"
    },
    {
      "inputs": [
        {
          "internalType": "string",
          "name": "gatewayId",
          "type": "string"
        },
        {
          "internalType": "string",
          "name": "gatewayName",
          "type": "string"
        },
        {
          "internalType": "string",
          "name": "lat",
          "type": "string"
        },
        {
          "internalType": "string",
          "name": "long",
          "type": "string"
        },
        {
          "internalType": "uint256",
          "name": "altitude",
          "type": "uint256"
        }
      ],
      "name": "addGateway",
      "outputs": [],
      "stateMutability": "nonpayable",
      "type": "function"
    },
    {
      "inputs": [],
      "name": "getGateways",
      "outputs": [
        {
          "components": [
            {
              "internalType": "string",
              "name": "id",
              "type": "string"
            },
            {
              "internalType": "string",
              "name": "name",
              "type": "string"
            },
            {
              "internalType": "string",
              "name": "lat",
              "type": "string"
            },
            {
              "internalType": "string",
              "name": "long",
              "type": "string"
            },
            {
              "internalType": "uint256",
              "name": "altitude",
              "type": "uint256"
            }
          ],
          "internalType": "struct Leafium.Gateway[]",
          "name": "",
          "type": "tuple[]"
        }
      ],
      "stateMutability": "view",
      "type": "function"
    },
    {
      "inputs": [],
      "name": "getMyGateways",
      "outputs": [
        {
          "components": [
            {
              "internalType": "string",
              "name": "id",
              "type": "string"
            },
            {
              "internalType": "string",
              "name": "name",
              "type": "string"
            },
            {
              "internalType": "string",
              "name": "lat",
              "type": "string"
            },
            {
              "internalType": "string",
              "name": "long",
              "type": "string"
            },
            {
              "internalType": "uint256",
              "name": "altitude",
              "type": "uint256"
            }
          ],
          "internalType": "struct Leafium.Gateway[]",
          "name": "",
          "type": "tuple[]"
        }
      ],
      "stateMutability": "view",
      "type": "function"
    }
  ],
  "transactionHash": "0xedb2ef23c894670486df50a1c2501d90f34a6e5347a425c512749677973198e4",
  "args": [],
  "numDeployments": 1,
  "solcInputHash": "260250cc3d3fa83413d4916124f8f9c9",
  "bytecode": "0x608060405234801561001057600080fd5b50610dbe806100206000396000f3fe608060405234801561001057600080fd5b50600436106100415760003560e01c8063741bf4a314610046578063877d84b914610064578063d82778ce14610080575b600080fd5b61004e61009e565b60405161005b9190610aa5565b60405180910390f35b61007e60048036038101906100799190610c3c565b61038b565b005b610088610552565b6040516100959190610aa5565b60405180910390f35b60606000803373ffffffffffffffffffffffffffffffffffffffff1673ffffffffffffffffffffffffffffffffffffffff168152602001908152602001600020805480602002602001604051908101604052809291908181526020016000905b8282101561038257838290600052602060002090600502016040518060a001604052908160008201805461013190610d56565b80601f016020809104026020016040519081016040528092919081815260200182805461015d90610d56565b80156101aa5780601f1061017f576101008083540402835291602001916101aa565b820191906000526020600020905b81548152906001019060200180831161018d57829003601f168201915b505050505081526020016001820180546101c390610d56565b80601f01602080910402602001604051908101604052809291908181526020018280546101ef90610d56565b801561023c5780601f106102115761010080835404028352916020019161023c565b820191906000526020600020905b81548152906001019060200180831161021f57829003601f168201915b5050505050815260200160028201805461025590610d56565b80601f016020809104026020016040519081016040528092919081815260200182805461028190610d56565b80156102ce5780601f106102a3576101008083540402835291602001916102ce565b820191906000526020600020905b8154815290600101906020018083116102b157829003601f168201915b505050505081526020016003820180546102e790610d56565b80601f016020809104026020016040519081016040528092919081815260200182805461031390610d56565b80156103605780601f1061033557610100808354040283529160200191610360565b820191906000526020600020905b81548152906001019060200180831161034357829003601f168201915b50505050508152602001600482015481525050815260200190600101906100fe565b50505050905090565b60006040518060a00160405280878152602001868152602001858152602001848152602001838152509050600181908060018154018082558091505060019003906000526020600020906005020160009091909190915060008201518160000190805190602001906103fe929190610803565b50602082015181600101908051906020019061041b929190610803565b506040820151816002019080519060200190610438929190610803565b506060820151816003019080519060200190610455929190610803565b506080820151816004015550506000803373ffffffffffffffffffffffffffffffffffffffff1673ffffffffffffffffffffffffffffffffffffffff16815260200190815260200160002081908060018154018082558091505060019003906000526020600020906005020160009091909190915060008201518160000190805190602001906104e6929190610803565b506020820151816001019080519060200190610503929190610803565b506040820151816002019080519060200190610520929190610803565b50606082015181600301908051906020019061053d929190610803565b50608082015181600401555050505050505050565b60606001805480602002602001604051908101604052809291908181526020016000905b828210156107fa57838290600052602060002090600502016040518060a00160405290816000820180546105a990610d56565b80601f01602080910402602001604051908101604052809291908181526020018280546105d590610d56565b80156106225780601f106105f757610100808354040283529160200191610622565b820191906000526020600020905b81548152906001019060200180831161060557829003601f168201915b5050505050815260200160018201805461063b90610d56565b80601f016020809104026020016040519081016040528092919081815260200182805461066790610d56565b80156106b45780601f10610689576101008083540402835291602001916106b4565b820191906000526020600020905b81548152906001019060200180831161069757829003601f168201915b505050505081526020016002820180546106cd90610d56565b80601f01602080910402602001604051908101604052809291908181526020018280546106f990610d56565b80156107465780601f1061071b57610100808354040283529160200191610746565b820191906000526020600020905b81548152906001019060200180831161072957829003601f168201915b5050505050815260200160038201805461075f90610d56565b80601f016020809104026020016040519081016040528092919081815260200182805461078b90610d56565b80156107d85780601f106107ad576101008083540402835291602001916107d8565b820191906000526020600020905b8154815290600101906020018083116107bb57829003601f168201915b5050505050815260200160048201548152505081526020019060010190610576565b50505050905090565b82805461080f90610d56565b90600052602060002090601f0160209004810192826108315760008555610878565b82601f1061084a57805160ff1916838001178555610878565b82800160010185558215610878579182015b8281111561087757825182559160200191906001019061085c565b5b5090506108859190610889565b5090565b5b808211156108a257600081600090555060010161088a565b5090565b600081519050919050565b600082825260208201905092915050565b6000819050602082019050919050565b600081519050919050565b600082825260208201905092915050565b60005b8381101561090c5780820151818401526020810190506108f1565b8381111561091b576000848401525b50505050565b6000601f19601f8301169050919050565b600061093d826108d2565b61094781856108dd565b93506109578185602086016108ee565b61096081610921565b840191505092915050565b6000819050919050565b61097e8161096b565b82525050565b600060a08301600083015184820360008601526109a18282610932565b915050602083015184820360208601526109bb8282610932565b915050604083015184820360408601526109d58282610932565b915050606083015184820360608601526109ef8282610932565b9150506080830151610a046080860182610975565b508091505092915050565b6000610a1b8383610984565b905092915050565b6000602082019050919050565b6000610a3b826108a6565b610a4581856108b1565b935083602082028501610a57856108c2565b8060005b85811015610a935784840389528151610a748582610a0f565b9450610a7f83610a23565b925060208a01995050600181019050610a5b565b50829750879550505050505092915050565b60006020820190508181036000830152610abf8184610a30565b905092915050565b6000604051905090565b600080fd5b600080fd5b600080fd5b600080fd5b7f4e487b7100000000000000000000000000000000000000000000000000000000600052604160045260246000fd5b610b1d82610921565b810181811067ffffffffffffffff82111715610b3c57610b3b610ae5565b5b80604052505050565b6000610b4f610ac7565b9050610b5b8282610b14565b919050565b600067ffffffffffffffff821115610b7b57610b7a610ae5565b5b610b8482610921565b9050602081019050919050565b82818337600083830152505050565b6000610bb3610bae84610b60565b610b45565b905082815260208101848484011115610bcf57610bce610ae0565b5b610bda848285610b91565b509392505050565b600082601f830112610bf757610bf6610adb565b5b8135610c07848260208601610ba0565b91505092915050565b610c198161096b565b8114610c2457600080fd5b50565b600081359050610c3681610c10565b92915050565b600080600080600060a08688031215610c5857610c57610ad1565b5b600086013567ffffffffffffffff811115610c7657610c75610ad6565b5b610c8288828901610be2565b955050602086013567ffffffffffffffff811115610ca357610ca2610ad6565b5b610caf88828901610be2565b945050604086013567ffffffffffffffff811115610cd057610ccf610ad6565b5b610cdc88828901610be2565b935050606086013567ffffffffffffffff811115610cfd57610cfc610ad6565b5b610d0988828901610be2565b9250506080610d1a88828901610c27565b9150509295509295909350565b7f4e487b7100000000000000000000000000000000000000000000000000000000600052602260045260246000fd5b60006002820490506001821680610d6e57607f821691505b60208210811415610d8257610d81610d27565b5b5091905056fea26469706673582212201bb44b803340025c1b003802b4a7a1ba2d4fc6175b74be95e98da93d5c2651d764736f6c63430008090033",
  "devdoc": {
    "kind": "dev",
    "methods": {},
    "version": 1
  },
  "userdoc": {
    "kind": "user",
    "methods": {},
    "version": 1
  },
  "storageLayout": {
    "storage": [
      {
        "astId": 18,
        "contract": "contracts/Leafium.sol:Leafium",
        "label": "userToGateways",
        "offset": 0,
        "slot": "0",
        "type": "t_mapping(t_address,t_array(t_struct(Gateway)12_storage)dyn_storage)"
      },
      {
        "astId": 22,
        "contract": "contracts/Leafium.sol:Leafium",
        "label": "gateways",
        "offset": 0,
        "slot": "1",
        "type": "t_array(t_struct(Gateway)12_storage)dyn_storage"
      }
    ],
    "types": {
      "t_address": {
        "encoding": "inplace",
        "label": "address",
        "numberOfBytes": "20"
      },
      "t_array(t_struct(Gateway)12_storage)dyn_storage": {
        "base": "t_struct(Gateway)12_storage",
        "encoding": "dynamic_array",
        "label": "struct Leafium.Gateway[]",
        "numberOfBytes": "32"
      },
      "t_mapping(t_address,t_array(t_struct(Gateway)12_storage)dyn_storage)": {
        "encoding": "mapping",
        "key": "t_address",
        "label": "mapping(address => struct Leafium.Gateway[])",
        "numberOfBytes": "32",
        "value": "t_array(t_struct(Gateway)12_storage)dyn_storage"
      },
      "t_string_storage": {
        "encoding": "bytes",
        "label": "string",
        "numberOfBytes": "32"
      },
      "t_struct(Gateway)12_storage": {
        "encoding": "inplace",
        "label": "struct Leafium.Gateway",
        "members": [
          {
            "astId": 3,
            "contract": "contracts/Leafium.sol:Leafium",
            "label": "id",
            "offset": 0,
            "slot": "0",
            "type": "t_string_storage"
          },
          {
            "astId": 5,
            "contract": "contracts/Leafium.sol:Leafium",
            "label": "name",
            "offset": 0,
            "slot": "1",
            "type": "t_string_storage"
          },
          {
            "astId": 7,
            "contract": "contracts/Leafium.sol:Leafium",
            "label": "lat",
            "offset": 0,
            "slot": "2",
            "type": "t_string_storage"
          },
          {
            "astId": 9,
            "contract": "contracts/Leafium.sol:Leafium",
            "label": "long",
            "offset": 0,
            "slot": "3",
            "type": "t_string_storage"
          },
          {
            "astId": 11,
            "contract": "contracts/Leafium.sol:Leafium",
            "label": "altitude",
            "offset": 0,
            "slot": "4",
            "type": "t_uint256"
          }
        ],
        "numberOfBytes": "160"
      },
      "t_uint256": {
        "encoding": "inplace",
        "label": "uint256",
        "numberOfBytes": "32"
      }
    }
  }
}