{
  "address": "0xe7f1725E7734CE288F8367e1Bb143E90bb3F0512",
  "abi": [
    {
      "inputs": [
        {
          "internalType": "address",
          "name": "tokenAddress",
          "type": "address"
        }
      ],
      "stateMutability": "nonpayable",
      "type": "constructor"
    },
    {
      "inputs": [
        {
          "internalType": "string",
          "name": "gatewayId",
          "type": "string"
        },
        {
          "internalType": "string",
          "name": "gatewayName",
          "type": "string"
        },
        {
          "internalType": "string",
          "name": "lat",
          "type": "string"
        },
        {
          "internalType": "string",
          "name": "long",
          "type": "string"
        },
        {
          "internalType": "uint256",
          "name": "altitude",
          "type": "uint256"
        }
      ],
      "name": "addGateway",
      "outputs": [],
      "stateMutability": "nonpayable",
      "type": "function"
    },
    {
      "inputs": [
        {
          "internalType": "string",
          "name": "gatewayId",
          "type": "string"
        }
      ],
      "name": "awake",
      "outputs": [],
      "stateMutability": "nonpayable",
      "type": "function"
    },
    {
      "inputs": [],
      "name": "getBalance",
      "outputs": [
        {
          "internalType": "uint256",
          "name": "",
          "type": "uint256"
        }
      ],
      "stateMutability": "view",
      "type": "function"
    },
    {
      "inputs": [],
      "name": "getGateways",
      "outputs": [
        {
          "components": [
            {
              "internalType": "string",
              "name": "id",
              "type": "string"
            },
            {
              "internalType": "string",
              "name": "name",
              "type": "string"
            },
            {
              "internalType": "string",
              "name": "lat",
              "type": "string"
            },
            {
              "internalType": "string",
              "name": "long",
              "type": "string"
            },
            {
              "internalType": "uint256",
              "name": "altitude",
              "type": "uint256"
            },
            {
              "internalType": "uint256",
              "name": "earnings",
              "type": "uint256"
            },
            {
              "internalType": "uint256",
              "name": "updatedAt",
              "type": "uint256"
            }
          ],
          "internalType": "struct Leafium.Gateway[]",
          "name": "",
          "type": "tuple[]"
        }
      ],
      "stateMutability": "view",
      "type": "function"
    },
    {
      "inputs": [],
      "name": "getMyGateways",
      "outputs": [
        {
          "components": [
            {
              "internalType": "string",
              "name": "id",
              "type": "string"
            },
            {
              "internalType": "string",
              "name": "name",
              "type": "string"
            },
            {
              "internalType": "string",
              "name": "lat",
              "type": "string"
            },
            {
              "internalType": "string",
              "name": "long",
              "type": "string"
            },
            {
              "internalType": "uint256",
              "name": "altitude",
              "type": "uint256"
            },
            {
              "internalType": "uint256",
              "name": "earnings",
              "type": "uint256"
            },
            {
              "internalType": "uint256",
              "name": "updatedAt",
              "type": "uint256"
            }
          ],
          "internalType": "struct Leafium.Gateway[]",
          "name": "",
          "type": "tuple[]"
        }
      ],
      "stateMutability": "view",
      "type": "function"
    }
  ],
  "transactionHash": "0xb25c3191cfb7717f645b3c3493e1ae639fceb742ec049fd3ea943a324e5bcfc4",
  "args": [
    "0x5FbDB2315678afecb367f032d93F642f64180aa3"
  ],
  "numDeployments": 1,
  "solcInputHash": "e2d21943c572e8e73d55f9712b8334b2",
  "bytecode": "0x60806040526802b5e3af16b1880000600455670de0b6b3a76400006005553480156200002a57600080fd5b50604051620019b8380380620019b8833981810160405281019062000050919062000101565b806000806101000a81548173ffffffffffffffffffffffffffffffffffffffff021916908373ffffffffffffffffffffffffffffffffffffffff1602179055505062000133565b600080fd5b600073ffffffffffffffffffffffffffffffffffffffff82169050919050565b6000620000c9826200009c565b9050919050565b620000db81620000bc565b8114620000e757600080fd5b50565b600081519050620000fb81620000d0565b92915050565b6000602082840312156200011a576200011962000097565b5b60006200012a84828501620000ea565b91505092915050565b61187580620001436000396000f3fe608060405234801561001057600080fd5b50600436106100575760003560e01c806312065fe01461005c578063741bf4a31461007a578063877d84b914610098578063d19a653a146100b4578063d82778ce146100d0575b600080fd5b6100646100ee565b6040516100719190610f27565b60405180910390f35b61008261019f565b60405161008f919061115d565b60405180910390f35b6100b260048036038101906100ad91906112f4565b6104a1565b005b6100ce60048036038101906100c991906113df565b6107d7565b005b6100d8610ba6565b6040516100e5919061115d565b60405180910390f35b60008060009054906101000a900473ffffffffffffffffffffffffffffffffffffffff1673ffffffffffffffffffffffffffffffffffffffff166370a08231336040518263ffffffff1660e01b815260040161014a9190611469565b60206040518083038186803b15801561016257600080fd5b505afa158015610176573d6000803e3d6000fd5b505050506040513d601f19601f8201168201806040525081019061019a9190611499565b905090565b6060600160003373ffffffffffffffffffffffffffffffffffffffff1673ffffffffffffffffffffffffffffffffffffffff168152602001908152602001600020805480602002602001604051908101604052809291908181526020016000905b8282101561049857838290600052602060002090600702016040518060e0016040529081600082018054610233906114f5565b80601f016020809104026020016040519081016040528092919081815260200182805461025f906114f5565b80156102ac5780601f10610281576101008083540402835291602001916102ac565b820191906000526020600020905b81548152906001019060200180831161028f57829003601f168201915b505050505081526020016001820180546102c5906114f5565b80601f01602080910402602001604051908101604052809291908181526020018280546102f1906114f5565b801561033e5780601f106103135761010080835404028352916020019161033e565b820191906000526020600020905b81548152906001019060200180831161032157829003601f168201915b50505050508152602001600282018054610357906114f5565b80601f0160208091040260200160405190810160405280929190818152602001828054610383906114f5565b80156103d05780601f106103a5576101008083540402835291602001916103d0565b820191906000526020600020905b8154815290600101906020018083116103b357829003601f168201915b505050505081526020016003820180546103e9906114f5565b80601f0160208091040260200160405190810160405280929190818152602001828054610415906114f5565b80156104625780601f1061043757610100808354040283529160200191610462565b820191906000526020600020905b81548152906001019060200180831161044557829003601f168201915b50505050508152602001600482015481526020016005820154815260200160068201548152505081526020019060010190610200565b50505050905090565b600015156002866040516104b59190611563565b908152602001604051809103902060009054906101000a900460ff16151514610513576040517f08c379a000000000000000000000000000000000000000000000000000000000815260040161050a906115d7565b60405180910390fd5b60006040518060e00160405280878152602001868152602001858152602001848152602001838152602001603281526020016000815250905060038190806001815401808255809150506001900390600052602060002090600702016000909190919091506000820151816000019080519060200190610594929190610e6b565b5060208201518160010190805190602001906105b1929190610e6b565b5060408201518160020190805190602001906105ce929190610e6b565b5060608201518160030190805190602001906105eb929190610e6b565b506080820151816004015560a0820151816005015560c082015181600601555050600160028760405161061e9190611563565b908152602001604051809103902060006101000a81548160ff021916908315150217905550600160003373ffffffffffffffffffffffffffffffffffffffff1673ffffffffffffffffffffffffffffffffffffffff16815260200190815260200160002081908060018154018082558091505060019003906000526020600020906007020160009091909190915060008201518160000190805190602001906106c8929190610e6b565b5060208201518160010190805190602001906106e5929190610e6b565b506040820151816002019080519060200190610702929190610e6b565b50606082015181600301908051906020019061071f929190610e6b565b506080820151816004015560a0820151816005015560c08201518160060155505060008054906101000a900473ffffffffffffffffffffffffffffffffffffffff1673ffffffffffffffffffffffffffffffffffffffff1663f8b71c64336004546040518363ffffffff1660e01b815260040161079d9291906115f7565b600060405180830381600087803b1580156107b757600080fd5b505af11580156107cb573d6000803e3d6000fd5b50505050505050505050565b6000805b600160003373ffffffffffffffffffffffffffffffffffffffff1673ffffffffffffffffffffffffffffffffffffffff16815260200190815260200160002080549050811015610ad2578280519060200120600160003373ffffffffffffffffffffffffffffffffffffffff1673ffffffffffffffffffffffffffffffffffffffff168152602001908152602001600020828154811061087e5761087d611620565b5b906000526020600020906007020160000160405161089c91906116ee565b60405180910390201415610abf5760019150600060018060003373ffffffffffffffffffffffffffffffffffffffff1673ffffffffffffffffffffffffffffffffffffffff168152602001908152602001600020838154811061090257610901611620565b5b90600052602060002090600702016005015461091e9190611734565b9050600042905081600160003373ffffffffffffffffffffffffffffffffffffffff1673ffffffffffffffffffffffffffffffffffffffff168152602001908152602001600020848154811061097757610976611620565b5b90600052602060002090600702016005018190555080600160003373ffffffffffffffffffffffffffffffffffffffff1673ffffffffffffffffffffffffffffffffffffffff16815260200190815260200160002084815481106109de576109dd611620565b5b90600052602060002090600702016006018190555060005b600380549050811015610ab757858051906020012060038281548110610a1f57610a1e611620565b5b9060005260206000209060070201600001604051610a3d91906116ee565b60405180910390201415610aa4578260038281548110610a6057610a5f611620565b5b9060005260206000209060070201600501819055508160038281548110610a8a57610a89611620565b5b906000526020600020906007020160060181905550610ab7565b8080610aaf9061178a565b9150506109f6565b505050610ad2565b8080610aca9061178a565b9150506107db565b5080610b13576040517f08c379a0000000000000000000000000000000000000000000000000000000008152600401610b0a9061181f565b60405180910390fd5b60008054906101000a900473ffffffffffffffffffffffffffffffffffffffff1673ffffffffffffffffffffffffffffffffffffffff1663f8b71c64336005546040518363ffffffff1660e01b8152600401610b709291906115f7565b600060405180830381600087803b158015610b8a57600080fd5b505af1158015610b9e573d6000803e3d6000fd5b505050505050565b60606003805480602002602001604051908101604052809291908181526020016000905b82821015610e6257838290600052602060002090600702016040518060e0016040529081600082018054610bfd906114f5565b80601f0160208091040260200160405190810160405280929190818152602001828054610c29906114f5565b8015610c765780601f10610c4b57610100808354040283529160200191610c76565b820191906000526020600020905b815481529060010190602001808311610c5957829003601f168201915b50505050508152602001600182018054610c8f906114f5565b80601f0160208091040260200160405190810160405280929190818152602001828054610cbb906114f5565b8015610d085780601f10610cdd57610100808354040283529160200191610d08565b820191906000526020600020905b815481529060010190602001808311610ceb57829003601f168201915b50505050508152602001600282018054610d21906114f5565b80601f0160208091040260200160405190810160405280929190818152602001828054610d4d906114f5565b8015610d9a5780601f10610d6f57610100808354040283529160200191610d9a565b820191906000526020600020905b815481529060010190602001808311610d7d57829003601f168201915b50505050508152602001600382018054610db3906114f5565b80601f0160208091040260200160405190810160405280929190818152602001828054610ddf906114f5565b8015610e2c5780601f10610e0157610100808354040283529160200191610e2c565b820191906000526020600020905b815481529060010190602001808311610e0f57829003601f168201915b50505050508152602001600482015481526020016005820154815260200160068201548152505081526020019060010190610bca565b50505050905090565b828054610e77906114f5565b90600052602060002090601f016020900481019282610e995760008555610ee0565b82601f10610eb257805160ff1916838001178555610ee0565b82800160010185558215610ee0579182015b82811115610edf578251825591602001919060010190610ec4565b5b509050610eed9190610ef1565b5090565b5b80821115610f0a576000816000905550600101610ef2565b5090565b6000819050919050565b610f2181610f0e565b82525050565b6000602082019050610f3c6000830184610f18565b92915050565b600081519050919050565b600082825260208201905092915050565b6000819050602082019050919050565b600081519050919050565b600082825260208201905092915050565b60005b83811015610fa8578082015181840152602081019050610f8d565b83811115610fb7576000848401525b50505050565b6000601f19601f8301169050919050565b6000610fd982610f6e565b610fe38185610f79565b9350610ff3818560208601610f8a565b610ffc81610fbd565b840191505092915050565b61101081610f0e565b82525050565b600060e08301600083015184820360008601526110338282610fce565b9150506020830151848203602086015261104d8282610fce565b915050604083015184820360408601526110678282610fce565b915050606083015184820360608601526110818282610fce565b91505060808301516110966080860182611007565b5060a08301516110a960a0860182611007565b5060c08301516110bc60c0860182611007565b508091505092915050565b60006110d38383611016565b905092915050565b6000602082019050919050565b60006110f382610f42565b6110fd8185610f4d565b93508360208202850161110f85610f5e565b8060005b8581101561114b578484038952815161112c85826110c7565b9450611137836110db565b925060208a01995050600181019050611113565b50829750879550505050505092915050565b6000602082019050818103600083015261117781846110e8565b905092915050565b6000604051905090565b600080fd5b600080fd5b600080fd5b600080fd5b7f4e487b7100000000000000000000000000000000000000000000000000000000600052604160045260246000fd5b6111d582610fbd565b810181811067ffffffffffffffff821117156111f4576111f361119d565b5b80604052505050565b600061120761117f565b905061121382826111cc565b919050565b600067ffffffffffffffff8211156112335761123261119d565b5b61123c82610fbd565b9050602081019050919050565b82818337600083830152505050565b600061126b61126684611218565b6111fd565b90508281526020810184848401111561128757611286611198565b5b611292848285611249565b509392505050565b600082601f8301126112af576112ae611193565b5b81356112bf848260208601611258565b91505092915050565b6112d181610f0e565b81146112dc57600080fd5b50565b6000813590506112ee816112c8565b92915050565b600080600080600060a086880312156113105761130f611189565b5b600086013567ffffffffffffffff81111561132e5761132d61118e565b5b61133a8882890161129a565b955050602086013567ffffffffffffffff81111561135b5761135a61118e565b5b6113678882890161129a565b945050604086013567ffffffffffffffff8111156113885761138761118e565b5b6113948882890161129a565b935050606086013567ffffffffffffffff8111156113b5576113b461118e565b5b6113c18882890161129a565b92505060806113d2888289016112df565b9150509295509295909350565b6000602082840312156113f5576113f4611189565b5b600082013567ffffffffffffffff8111156114135761141261118e565b5b61141f8482850161129a565b91505092915050565b600073ffffffffffffffffffffffffffffffffffffffff82169050919050565b600061145382611428565b9050919050565b61146381611448565b82525050565b600060208201905061147e600083018461145a565b92915050565b600081519050611493816112c8565b92915050565b6000602082840312156114af576114ae611189565b5b60006114bd84828501611484565b91505092915050565b7f4e487b7100000000000000000000000000000000000000000000000000000000600052602260045260246000fd5b6000600282049050600182168061150d57607f821691505b60208210811415611521576115206114c6565b5b50919050565b600081905092915050565b600061153d82610f6e565b6115478185611527565b9350611557818560208601610f8a565b80840191505092915050565b600061156f8284611532565b915081905092915050565b600082825260208201905092915050565b7f4761746577617920616c72656164792072656769737465726564210000000000600082015250565b60006115c1601b8361157a565b91506115cc8261158b565b602082019050919050565b600060208201905081810360008301526115f0816115b4565b9050919050565b600060408201905061160c600083018561145a565b6116196020830184610f18565b9392505050565b7f4e487b7100000000000000000000000000000000000000000000000000000000600052603260045260246000fd5b600081905092915050565b60008190508160005260206000209050919050565b6000815461167c816114f5565b611686818661164f565b945060018216600081146116a157600181146116b2576116e5565b60ff198316865281860193506116e5565b6116bb8561165a565b60005b838110156116dd578154818901526001820191506020810190506116be565b838801955050505b50505092915050565b60006116fa828461166f565b915081905092915050565b7f4e487b7100000000000000000000000000000000000000000000000000000000600052601160045260246000fd5b600061173f82610f0e565b915061174a83610f0e565b9250827fffffffffffffffffffffffffffffffffffffffffffffffffffffffffffffffff0382111561177f5761177e611705565b5b828201905092915050565b600061179582610f0e565b91507fffffffffffffffffffffffffffffffffffffffffffffffffffffffffffffffff8214156117c8576117c7611705565b5b600182019050919050565b7f47617465776179206e6f7420666f756e64210000000000000000000000000000600082015250565b600061180960128361157a565b9150611814826117d3565b602082019050919050565b60006020820190508181036000830152611838816117fc565b905091905056fea26469706673582212204be0ad55ca9fc03e7993424e4810a9f79798cb3593cc62b98060f0f75131d20164736f6c63430008090033",
  "devdoc": {
    "kind": "dev",
    "methods": {},
    "version": 1
  },
  "userdoc": {
    "kind": "user",
    "methods": {},
    "version": 1
  },
  "storageLayout": {
    "storage": [
      {
        "astId": 732,
        "contract": "contracts/Leafium.sol:Leafium",
        "label": "token",
        "offset": 0,
        "slot": "0",
        "type": "t_contract(LeafiumToken)1065"
      },
      {
        "astId": 738,
        "contract": "contracts/Leafium.sol:Leafium",
        "label": "userToGateways",
        "offset": 0,
        "slot": "1",
        "type": "t_mapping(t_address,t_array(t_struct(Gateway)729_storage)dyn_storage)"
      },
      {
        "astId": 742,
        "contract": "contracts/Leafium.sol:Leafium",
        "label": "gatewayExists",
        "offset": 0,
        "slot": "2",
        "type": "t_mapping(t_string_memory_ptr,t_bool)"
      },
      {
        "astId": 746,
        "contract": "contracts/Leafium.sol:Leafium",
        "label": "gateways",
        "offset": 0,
        "slot": "3",
        "type": "t_array(t_struct(Gateway)729_storage)dyn_storage"
      },
      {
        "astId": 754,
        "contract": "contracts/Leafium.sol:Leafium",
        "label": "reward",
        "offset": 0,
        "slot": "4",
        "type": "t_uint256"
      },
      {
        "astId": 762,
        "contract": "contracts/Leafium.sol:Leafium",
        "label": "awakeReward",
        "offset": 0,
        "slot": "5",
        "type": "t_uint256"
      }
    ],
    "types": {
      "t_address": {
        "encoding": "inplace",
        "label": "address",
        "numberOfBytes": "20"
      },
      "t_array(t_struct(Gateway)729_storage)dyn_storage": {
        "base": "t_struct(Gateway)729_storage",
        "encoding": "dynamic_array",
        "label": "struct Leafium.Gateway[]",
        "numberOfBytes": "32"
      },
      "t_bool": {
        "encoding": "inplace",
        "label": "bool",
        "numberOfBytes": "1"
      },
      "t_contract(LeafiumToken)1065": {
        "encoding": "inplace",
        "label": "contract LeafiumToken",
        "numberOfBytes": "20"
      },
      "t_mapping(t_address,t_array(t_struct(Gateway)729_storage)dyn_storage)": {
        "encoding": "mapping",
        "key": "t_address",
        "label": "mapping(address => struct Leafium.Gateway[])",
        "numberOfBytes": "32",
        "value": "t_array(t_struct(Gateway)729_storage)dyn_storage"
      },
      "t_mapping(t_string_memory_ptr,t_bool)": {
        "encoding": "mapping",
        "key": "t_string_memory_ptr",
        "label": "mapping(string => bool)",
        "numberOfBytes": "32",
        "value": "t_bool"
      },
      "t_string_memory_ptr": {
        "encoding": "bytes",
        "label": "string",
        "numberOfBytes": "32"
      },
      "t_string_storage": {
        "encoding": "bytes",
        "label": "string",
        "numberOfBytes": "32"
      },
      "t_struct(Gateway)729_storage": {
        "encoding": "inplace",
        "label": "struct Leafium.Gateway",
        "members": [
          {
            "astId": 716,
            "contract": "contracts/Leafium.sol:Leafium",
            "label": "id",
            "offset": 0,
            "slot": "0",
            "type": "t_string_storage"
          },
          {
            "astId": 718,
            "contract": "contracts/Leafium.sol:Leafium",
            "label": "name",
            "offset": 0,
            "slot": "1",
            "type": "t_string_storage"
          },
          {
            "astId": 720,
            "contract": "contracts/Leafium.sol:Leafium",
            "label": "lat",
            "offset": 0,
            "slot": "2",
            "type": "t_string_storage"
          },
          {
            "astId": 722,
            "contract": "contracts/Leafium.sol:Leafium",
            "label": "long",
            "offset": 0,
            "slot": "3",
            "type": "t_string_storage"
          },
          {
            "astId": 724,
            "contract": "contracts/Leafium.sol:Leafium",
            "label": "altitude",
            "offset": 0,
            "slot": "4",
            "type": "t_uint256"
          },
          {
            "astId": 726,
            "contract": "contracts/Leafium.sol:Leafium",
            "label": "earnings",
            "offset": 0,
            "slot": "5",
            "type": "t_uint256"
          },
          {
            "astId": 728,
            "contract": "contracts/Leafium.sol:Leafium",
            "label": "updatedAt",
            "offset": 0,
            "slot": "6",
            "type": "t_uint256"
          }
        ],
        "numberOfBytes": "224"
      },
      "t_uint256": {
        "encoding": "inplace",
        "label": "uint256",
        "numberOfBytes": "32"
      }
    }
  }
}