{
  "address": "0x5FbDB2315678afecb367f032d93F642f64180aa3",
  "abi": [
    {
      "inputs": [],
      "stateMutability": "nonpayable",
      "type": "constructor"
    },
    {
      "inputs": [
        {
          "internalType": "string",
          "name": "gatewayId",
          "type": "string"
        },
        {
          "internalType": "string",
          "name": "gatewayName",
          "type": "string"
        },
        {
          "components": [
            {
              "internalType": "string",
              "name": "lat",
              "type": "string"
            },
            {
              "internalType": "string",
              "name": "long",
              "type": "string"
            },
            {
              "internalType": "uint256",
              "name": "altitude",
              "type": "uint256"
            }
          ],
          "internalType": "struct Leafium.Position",
          "name": "position",
          "type": "tuple"
        }
      ],
      "name": "addGateway",
      "outputs": [
        {
          "components": [
            {
              "internalType": "string",
              "name": "id",
              "type": "string"
            },
            {
              "internalType": "string",
              "name": "name",
              "type": "string"
            },
            {
              "components": [
                {
                  "internalType": "string",
                  "name": "lat",
                  "type": "string"
                },
                {
                  "internalType": "string",
                  "name": "long",
                  "type": "string"
                },
                {
                  "internalType": "uint256",
                  "name": "altitude",
                  "type": "uint256"
                }
              ],
              "internalType": "struct Leafium.Position",
              "name": "Position",
              "type": "tuple"
            }
          ],
          "internalType": "struct Leafium.Gateway",
          "name": "",
          "type": "tuple"
        }
      ],
      "stateMutability": "nonpayable",
      "type": "function"
    },
    {
      "inputs": [
        {
          "internalType": "uint256",
          "name": "",
          "type": "uint256"
        }
      ],
      "name": "gateways",
      "outputs": [
        {
          "internalType": "string",
          "name": "id",
          "type": "string"
        },
        {
          "internalType": "string",
          "name": "name",
          "type": "string"
        },
        {
          "components": [
            {
              "internalType": "string",
              "name": "lat",
              "type": "string"
            },
            {
              "internalType": "string",
              "name": "long",
              "type": "string"
            },
            {
              "internalType": "uint256",
              "name": "altitude",
              "type": "uint256"
            }
          ],
          "internalType": "struct Leafium.Position",
          "name": "Position",
          "type": "tuple"
        }
      ],
      "stateMutability": "view",
      "type": "function"
    },
    {
      "inputs": [],
      "name": "getMyGateways",
      "outputs": [
        {
          "components": [
            {
              "internalType": "string",
              "name": "id",
              "type": "string"
            },
            {
              "internalType": "string",
              "name": "name",
              "type": "string"
            },
            {
              "components": [
                {
                  "internalType": "string",
                  "name": "lat",
                  "type": "string"
                },
                {
                  "internalType": "string",
                  "name": "long",
                  "type": "string"
                },
                {
                  "internalType": "uint256",
                  "name": "altitude",
                  "type": "uint256"
                }
              ],
              "internalType": "struct Leafium.Position",
              "name": "Position",
              "type": "tuple"
            }
          ],
          "internalType": "struct Leafium.Gateway[]",
          "name": "",
          "type": "tuple[]"
        }
      ],
      "stateMutability": "view",
      "type": "function"
    }
  ],
  "transactionHash": "0xefa26c6358e11b12aadd9b6749005e520c7294d1ed37540d4db1e952612e2ce2",
  "args": [],
  "numDeployments": 1,
  "solcInputHash": "b04c44ab3825bdcaa38b73ec7d40bb29",
  "bytecode": "0x608060405234801561001057600080fd5b5061104e806100206000396000f3fe608060405234801561001057600080fd5b50600436106100415760003560e01c80633da33f001461004657806364c1705614610076578063741bf4a3146100a8575b600080fd5b610060600480360381019061005b9190610b46565b6100c6565b60405161006d9190610d39565b60405180910390f35b610090600480360381019061008b9190610d5b565b6102a2565b60405161009f93929190610e29565b60405180910390f35b6100b0610524565b6040516100bd9190610f95565b60405180910390f35b6100ce610825565b600060405180606001604052808681526020018581526020018481525090506001819080600181540180825580915050600190039060005260206000209060050201600090919091909150600082015181600001908051906020019061013592919061084c565b50602082015181600101908051906020019061015292919061084c565b50604082015181600201600082015181600001908051906020019061017892919061084c565b50602082015181600101908051906020019061019592919061084c565b5060408201518160020155505050506000803373ffffffffffffffffffffffffffffffffffffffff1673ffffffffffffffffffffffffffffffffffffffff168152602001908152602001600020819080600181540180825580915050600190039060005260206000209060050201600090919091909150600082015181600001908051906020019061022892919061084c565b50602082015181600101908051906020019061024592919061084c565b50604082015181600201600082015181600001908051906020019061026b92919061084c565b50602082015181600101908051906020019061028892919061084c565b506040820151816002015550505050809150509392505050565b600181815481106102b257600080fd5b90600052602060002090600502016000915090508060000180546102d590610fe6565b80601f016020809104026020016040519081016040528092919081815260200182805461030190610fe6565b801561034e5780601f106103235761010080835404028352916020019161034e565b820191906000526020600020905b81548152906001019060200180831161033157829003601f168201915b50505050509080600101805461036390610fe6565b80601f016020809104026020016040519081016040528092919081815260200182805461038f90610fe6565b80156103dc5780601f106103b1576101008083540402835291602001916103dc565b820191906000526020600020905b8154815290600101906020018083116103bf57829003601f168201915b5050505050908060020160405180606001604052908160008201805461040190610fe6565b80601f016020809104026020016040519081016040528092919081815260200182805461042d90610fe6565b801561047a5780601f1061044f5761010080835404028352916020019161047a565b820191906000526020600020905b81548152906001019060200180831161045d57829003601f168201915b5050505050815260200160018201805461049390610fe6565b80601f01602080910402602001604051908101604052809291908181526020018280546104bf90610fe6565b801561050c5780601f106104e15761010080835404028352916020019161050c565b820191906000526020600020905b8154815290600101906020018083116104ef57829003601f168201915b50505050508152602001600282015481525050905083565b60606000803373ffffffffffffffffffffffffffffffffffffffff1673ffffffffffffffffffffffffffffffffffffffff168152602001908152602001600020805480602002602001604051908101604052809291908181526020016000905b8282101561081c57838290600052602060002090600502016040518060600160405290816000820180546105b790610fe6565b80601f01602080910402602001604051908101604052809291908181526020018280546105e390610fe6565b80156106305780601f1061060557610100808354040283529160200191610630565b820191906000526020600020905b81548152906001019060200180831161061357829003601f168201915b5050505050815260200160018201805461064990610fe6565b80601f016020809104026020016040519081016040528092919081815260200182805461067590610fe6565b80156106c25780601f10610697576101008083540402835291602001916106c2565b820191906000526020600020905b8154815290600101906020018083116106a557829003601f168201915b50505050508152602001600282016040518060600160405290816000820180546106eb90610fe6565b80601f016020809104026020016040519081016040528092919081815260200182805461071790610fe6565b80156107645780601f1061073957610100808354040283529160200191610764565b820191906000526020600020905b81548152906001019060200180831161074757829003601f168201915b5050505050815260200160018201805461077d90610fe6565b80601f01602080910402602001604051908101604052809291908181526020018280546107a990610fe6565b80156107f65780601f106107cb576101008083540402835291602001916107f6565b820191906000526020600020905b8154815290600101906020018083116107d957829003601f168201915b505050505081526020016002820154815250508152505081526020019060010190610584565b50505050905090565b604051806060016040528060608152602001606081526020016108466108d2565b81525090565b82805461085890610fe6565b90600052602060002090601f01602090048101928261087a57600085556108c1565b82601f1061089357805160ff19168380011785556108c1565b828001600101855582156108c1579182015b828111156108c05782518255916020019190600101906108a5565b5b5090506108ce91906108f3565b5090565b60405180606001604052806060815260200160608152602001600081525090565b5b8082111561090c5760008160009055506001016108f4565b5090565b6000604051905090565b600080fd5b600080fd5b600080fd5b600080fd5b6000601f19601f8301169050919050565b7f4e487b7100000000000000000000000000000000000000000000000000000000600052604160045260246000fd5b6109778261092e565b810181811067ffffffffffffffff821117156109965761099561093f565b5b80604052505050565b60006109a9610910565b90506109b5828261096e565b919050565b600067ffffffffffffffff8211156109d5576109d461093f565b5b6109de8261092e565b9050602081019050919050565b82818337600083830152505050565b6000610a0d610a08846109ba565b61099f565b905082815260208101848484011115610a2957610a28610929565b5b610a348482856109eb565b509392505050565b600082601f830112610a5157610a50610924565b5b8135610a618482602086016109fa565b91505092915050565b600080fd5b600080fd5b6000819050919050565b610a8781610a74565b8114610a9257600080fd5b50565b600081359050610aa481610a7e565b92915050565b600060608284031215610ac057610abf610a6a565b5b610aca606061099f565b9050600082013567ffffffffffffffff811115610aea57610ae9610a6f565b5b610af684828501610a3c565b600083015250602082013567ffffffffffffffff811115610b1a57610b19610a6f565b5b610b2684828501610a3c565b6020830152506040610b3a84828501610a95565b60408301525092915050565b600080600060608486031215610b5f57610b5e61091a565b5b600084013567ffffffffffffffff811115610b7d57610b7c61091f565b5b610b8986828701610a3c565b935050602084013567ffffffffffffffff811115610baa57610ba961091f565b5b610bb686828701610a3c565b925050604084013567ffffffffffffffff811115610bd757610bd661091f565b5b610be386828701610aaa565b9150509250925092565b600081519050919050565b600082825260208201905092915050565b60005b83811015610c27578082015181840152602081019050610c0c565b83811115610c36576000848401525b50505050565b6000610c4782610bed565b610c518185610bf8565b9350610c61818560208601610c09565b610c6a8161092e565b840191505092915050565b610c7e81610a74565b82525050565b60006060830160008301518482036000860152610ca18282610c3c565b91505060208301518482036020860152610cbb8282610c3c565b9150506040830151610cd06040860182610c75565b508091505092915050565b60006060830160008301518482036000860152610cf88282610c3c565b91505060208301518482036020860152610d128282610c3c565b91505060408301518482036040860152610d2c8282610c84565b9150508091505092915050565b60006020820190508181036000830152610d538184610cdb565b905092915050565b600060208284031215610d7157610d7061091a565b5b6000610d7f84828501610a95565b91505092915050565b600082825260208201905092915050565b6000610da482610bed565b610dae8185610d88565b9350610dbe818560208601610c09565b610dc78161092e565b840191505092915050565b60006060830160008301518482036000860152610def8282610c3c565b91505060208301518482036020860152610e098282610c3c565b9150506040830151610e1e6040860182610c75565b508091505092915050565b60006060820190508181036000830152610e438186610d99565b90508181036020830152610e578185610d99565b90508181036040830152610e6b8184610dd2565b9050949350505050565b600081519050919050565b600082825260208201905092915050565b6000819050602082019050919050565b60006060830160008301518482036000860152610ebe8282610c3c565b91505060208301518482036020860152610ed88282610c3c565b91505060408301518482036040860152610ef28282610c84565b9150508091505092915050565b6000610f0b8383610ea1565b905092915050565b6000602082019050919050565b6000610f2b82610e75565b610f358185610e80565b935083602082028501610f4785610e91565b8060005b85811015610f835784840389528151610f648582610eff565b9450610f6f83610f13565b925060208a01995050600181019050610f4b565b50829750879550505050505092915050565b60006020820190508181036000830152610faf8184610f20565b905092915050565b7f4e487b7100000000000000000000000000000000000000000000000000000000600052602260045260246000fd5b60006002820490506001821680610ffe57607f821691505b6020821081141561101257611011610fb7565b5b5091905056fea26469706673582212200881881c5c401a8e42b66f10a3bf20ae32fc5b7451a63c62501aa6582cd16c8564736f6c63430008090033",
  "devdoc": {
    "kind": "dev",
    "methods": {},
    "version": 1
  },
  "userdoc": {
    "kind": "user",
    "methods": {},
    "version": 1
  },
  "storageLayout": {
    "storage": [
      {
        "astId": 22,
        "contract": "contracts/Leafium.sol:Leafium",
        "label": "userToGateways",
        "offset": 0,
        "slot": "0",
        "type": "t_mapping(t_address,t_array(t_struct(Gateway)16_storage)dyn_storage)"
      },
      {
        "astId": 26,
        "contract": "contracts/Leafium.sol:Leafium",
        "label": "gateways",
        "offset": 0,
        "slot": "1",
        "type": "t_array(t_struct(Gateway)16_storage)dyn_storage"
      }
    ],
    "types": {
      "t_address": {
        "encoding": "inplace",
        "label": "address",
        "numberOfBytes": "20"
      },
      "t_array(t_struct(Gateway)16_storage)dyn_storage": {
        "base": "t_struct(Gateway)16_storage",
        "encoding": "dynamic_array",
        "label": "struct Leafium.Gateway[]",
        "numberOfBytes": "32"
      },
      "t_mapping(t_address,t_array(t_struct(Gateway)16_storage)dyn_storage)": {
        "encoding": "mapping",
        "key": "t_address",
        "label": "mapping(address => struct Leafium.Gateway[])",
        "numberOfBytes": "32",
        "value": "t_array(t_struct(Gateway)16_storage)dyn_storage"
      },
      "t_string_storage": {
        "encoding": "bytes",
        "label": "string",
        "numberOfBytes": "32"
      },
      "t_struct(Gateway)16_storage": {
        "encoding": "inplace",
        "label": "struct Leafium.Gateway",
        "members": [
          {
            "astId": 10,
            "contract": "contracts/Leafium.sol:Leafium",
            "label": "id",
            "offset": 0,
            "slot": "0",
            "type": "t_string_storage"
          },
          {
            "astId": 12,
            "contract": "contracts/Leafium.sol:Leafium",
            "label": "name",
            "offset": 0,
            "slot": "1",
            "type": "t_string_storage"
          },
          {
            "astId": 15,
            "contract": "contracts/Leafium.sol:Leafium",
            "label": "Position",
            "offset": 0,
            "slot": "2",
            "type": "t_struct(Position)8_storage"
          }
        ],
        "numberOfBytes": "160"
      },
      "t_struct(Position)8_storage": {
        "encoding": "inplace",
        "label": "struct Leafium.Position",
        "members": [
          {
            "astId": 3,
            "contract": "contracts/Leafium.sol:Leafium",
            "label": "lat",
            "offset": 0,
            "slot": "0",
            "type": "t_string_storage"
          },
          {
            "astId": 5,
            "contract": "contracts/Leafium.sol:Leafium",
            "label": "long",
            "offset": 0,
            "slot": "1",
            "type": "t_string_storage"
          },
          {
            "astId": 7,
            "contract": "contracts/Leafium.sol:Leafium",
            "label": "altitude",
            "offset": 0,
            "slot": "2",
            "type": "t_uint256"
          }
        ],
        "numberOfBytes": "96"
      },
      "t_uint256": {
        "encoding": "inplace",
        "label": "uint256",
        "numberOfBytes": "32"
      }
    }
  }
}