{
  "address": "0x5FC8d32690cc91D4c39d9d3abcBD16989F875707",
  "abi": [
    {
      "inputs": [
        {
          "internalType": "address",
          "name": "tokenAddress",
          "type": "address"
        }
      ],
      "stateMutability": "nonpayable",
      "type": "constructor"
    },
    {
      "inputs": [
        {
          "internalType": "string",
          "name": "gatewayId",
          "type": "string"
        },
        {
          "internalType": "string",
          "name": "gatewayName",
          "type": "string"
        },
        {
          "internalType": "string",
          "name": "lat",
          "type": "string"
        },
        {
          "internalType": "string",
          "name": "long",
          "type": "string"
        },
        {
          "internalType": "uint256",
          "name": "altitude",
          "type": "uint256"
        }
      ],
      "name": "addGateway",
      "outputs": [],
      "stateMutability": "nonpayable",
      "type": "function"
    },
    {
      "inputs": [],
      "name": "getBalance",
      "outputs": [
        {
          "internalType": "uint256",
          "name": "",
          "type": "uint256"
        }
      ],
      "stateMutability": "view",
      "type": "function"
    },
    {
      "inputs": [],
      "name": "getGateways",
      "outputs": [
        {
          "components": [
            {
              "internalType": "string",
              "name": "id",
              "type": "string"
            },
            {
              "internalType": "string",
              "name": "name",
              "type": "string"
            },
            {
              "internalType": "string",
              "name": "lat",
              "type": "string"
            },
            {
              "internalType": "string",
              "name": "long",
              "type": "string"
            },
            {
              "internalType": "uint256",
              "name": "altitude",
              "type": "uint256"
            }
          ],
          "internalType": "struct Leafium.Gateway[]",
          "name": "",
          "type": "tuple[]"
        }
      ],
      "stateMutability": "view",
      "type": "function"
    },
    {
      "inputs": [],
      "name": "getMyGateways",
      "outputs": [
        {
          "components": [
            {
              "internalType": "string",
              "name": "id",
              "type": "string"
            },
            {
              "internalType": "string",
              "name": "name",
              "type": "string"
            },
            {
              "internalType": "string",
              "name": "lat",
              "type": "string"
            },
            {
              "internalType": "string",
              "name": "long",
              "type": "string"
            },
            {
              "internalType": "uint256",
              "name": "altitude",
              "type": "uint256"
            }
          ],
          "internalType": "struct Leafium.Gateway[]",
          "name": "",
          "type": "tuple[]"
        }
      ],
      "stateMutability": "view",
      "type": "function"
    }
  ],
  "transactionHash": "0x0bb3ec1bfd67264b885bf7618090453ee65777d35706bfd860bd83db5a3e7146",
  "args": [
    "0xDc64a140Aa3E981100a9becA4E685f962f0cF6C9"
  ],
  "numDeployments": 3,
  "solcInputHash": "0f61573a643ec238137f619bf3daa5bc",
  "bytecode": "0x60806040526802b5e3af16b18800006003553480156200001e57600080fd5b5060405162001151380380620011518339818101604052810190620000449190620000f5565b806000806101000a81548173ffffffffffffffffffffffffffffffffffffffff021916908373ffffffffffffffffffffffffffffffffffffffff1602179055505062000127565b600080fd5b600073ffffffffffffffffffffffffffffffffffffffff82169050919050565b6000620000bd8262000090565b9050919050565b620000cf81620000b0565b8114620000db57600080fd5b50565b600081519050620000ef81620000c4565b92915050565b6000602082840312156200010e576200010d6200008b565b5b60006200011e84828501620000de565b91505092915050565b61101a80620001376000396000f3fe608060405234801561001057600080fd5b506004361061004c5760003560e01c806312065fe014610051578063741bf4a31461006f578063877d84b91461008d578063d82778ce146100a9575b600080fd5b6100596100c7565b6040516100669190610a2a565b60405180910390f35b610077610178565b6040516100849190610c3a565b60405180910390f35b6100a760048036038101906100a29190610dd1565b610466565b005b6100b16106bd565b6040516100be9190610c3a565b60405180910390f35b60008060009054906101000a900473ffffffffffffffffffffffffffffffffffffffff1673ffffffffffffffffffffffffffffffffffffffff166370a08231336040518263ffffffff1660e01b81526004016101239190610efd565b60206040518083038186803b15801561013b57600080fd5b505afa15801561014f573d6000803e3d6000fd5b505050506040513d601f19601f820116820180604052508101906101739190610f2d565b905090565b6060600160003373ffffffffffffffffffffffffffffffffffffffff1673ffffffffffffffffffffffffffffffffffffffff168152602001908152602001600020805480602002602001604051908101604052809291908181526020016000905b8282101561045d57838290600052602060002090600502016040518060a001604052908160008201805461020c90610f89565b80601f016020809104026020016040519081016040528092919081815260200182805461023890610f89565b80156102855780601f1061025a57610100808354040283529160200191610285565b820191906000526020600020905b81548152906001019060200180831161026857829003601f168201915b5050505050815260200160018201805461029e90610f89565b80601f01602080910402602001604051908101604052809291908181526020018280546102ca90610f89565b80156103175780601f106102ec57610100808354040283529160200191610317565b820191906000526020600020905b8154815290600101906020018083116102fa57829003601f168201915b5050505050815260200160028201805461033090610f89565b80601f016020809104026020016040519081016040528092919081815260200182805461035c90610f89565b80156103a95780601f1061037e576101008083540402835291602001916103a9565b820191906000526020600020905b81548152906001019060200180831161038c57829003601f168201915b505050505081526020016003820180546103c290610f89565b80601f01602080910402602001604051908101604052809291908181526020018280546103ee90610f89565b801561043b5780601f106104105761010080835404028352916020019161043b565b820191906000526020600020905b81548152906001019060200180831161041e57829003601f168201915b50505050508152602001600482015481525050815260200190600101906101d9565b50505050905090565b60006040518060a00160405280878152602001868152602001858152602001848152602001838152509050600281908060018154018082558091505060019003906000526020600020906005020160009091909190915060008201518160000190805190602001906104d992919061096e565b5060208201518160010190805190602001906104f692919061096e565b50604082015181600201908051906020019061051392919061096e565b50606082015181600301908051906020019061053092919061096e565b50608082015181600401555050600160003373ffffffffffffffffffffffffffffffffffffffff1673ffffffffffffffffffffffffffffffffffffffff16815260200190815260200160002081908060018154018082558091505060019003906000526020600020906005020160009091909190915060008201518160000190805190602001906105c292919061096e565b5060208201518160010190805190602001906105df92919061096e565b5060408201518160020190805190602001906105fc92919061096e565b50606082015181600301908051906020019061061992919061096e565b5060808201518160040155505060008054906101000a900473ffffffffffffffffffffffffffffffffffffffff1673ffffffffffffffffffffffffffffffffffffffff1663f8b71c64336003546040518363ffffffff1660e01b8152600401610683929190610fbb565b600060405180830381600087803b15801561069d57600080fd5b505af11580156106b1573d6000803e3d6000fd5b50505050505050505050565b60606002805480602002602001604051908101604052809291908181526020016000905b8282101561096557838290600052602060002090600502016040518060a001604052908160008201805461071490610f89565b80601f016020809104026020016040519081016040528092919081815260200182805461074090610f89565b801561078d5780601f106107625761010080835404028352916020019161078d565b820191906000526020600020905b81548152906001019060200180831161077057829003601f168201915b505050505081526020016001820180546107a690610f89565b80601f01602080910402602001604051908101604052809291908181526020018280546107d290610f89565b801561081f5780601f106107f45761010080835404028352916020019161081f565b820191906000526020600020905b81548152906001019060200180831161080257829003601f168201915b5050505050815260200160028201805461083890610f89565b80601f016020809104026020016040519081016040528092919081815260200182805461086490610f89565b80156108b15780601f10610886576101008083540402835291602001916108b1565b820191906000526020600020905b81548152906001019060200180831161089457829003601f168201915b505050505081526020016003820180546108ca90610f89565b80601f01602080910402602001604051908101604052809291908181526020018280546108f690610f89565b80156109435780601f1061091857610100808354040283529160200191610943565b820191906000526020600020905b81548152906001019060200180831161092657829003601f168201915b50505050508152602001600482015481525050815260200190600101906106e1565b50505050905090565b82805461097a90610f89565b90600052602060002090601f01602090048101928261099c57600085556109e3565b82601f106109b557805160ff19168380011785556109e3565b828001600101855582156109e3579182015b828111156109e25782518255916020019190600101906109c7565b5b5090506109f091906109f4565b5090565b5b80821115610a0d5760008160009055506001016109f5565b5090565b6000819050919050565b610a2481610a11565b82525050565b6000602082019050610a3f6000830184610a1b565b92915050565b600081519050919050565b600082825260208201905092915050565b6000819050602082019050919050565b600081519050919050565b600082825260208201905092915050565b60005b83811015610aab578082015181840152602081019050610a90565b83811115610aba576000848401525b50505050565b6000601f19601f8301169050919050565b6000610adc82610a71565b610ae68185610a7c565b9350610af6818560208601610a8d565b610aff81610ac0565b840191505092915050565b610b1381610a11565b82525050565b600060a0830160008301518482036000860152610b368282610ad1565b91505060208301518482036020860152610b508282610ad1565b91505060408301518482036040860152610b6a8282610ad1565b91505060608301518482036060860152610b848282610ad1565b9150506080830151610b996080860182610b0a565b508091505092915050565b6000610bb08383610b19565b905092915050565b6000602082019050919050565b6000610bd082610a45565b610bda8185610a50565b935083602082028501610bec85610a61565b8060005b85811015610c285784840389528151610c098582610ba4565b9450610c1483610bb8565b925060208a01995050600181019050610bf0565b50829750879550505050505092915050565b60006020820190508181036000830152610c548184610bc5565b905092915050565b6000604051905090565b600080fd5b600080fd5b600080fd5b600080fd5b7f4e487b7100000000000000000000000000000000000000000000000000000000600052604160045260246000fd5b610cb282610ac0565b810181811067ffffffffffffffff82111715610cd157610cd0610c7a565b5b80604052505050565b6000610ce4610c5c565b9050610cf08282610ca9565b919050565b600067ffffffffffffffff821115610d1057610d0f610c7a565b5b610d1982610ac0565b9050602081019050919050565b82818337600083830152505050565b6000610d48610d4384610cf5565b610cda565b905082815260208101848484011115610d6457610d63610c75565b5b610d6f848285610d26565b509392505050565b600082601f830112610d8c57610d8b610c70565b5b8135610d9c848260208601610d35565b91505092915050565b610dae81610a11565b8114610db957600080fd5b50565b600081359050610dcb81610da5565b92915050565b600080600080600060a08688031215610ded57610dec610c66565b5b600086013567ffffffffffffffff811115610e0b57610e0a610c6b565b5b610e1788828901610d77565b955050602086013567ffffffffffffffff811115610e3857610e37610c6b565b5b610e4488828901610d77565b945050604086013567ffffffffffffffff811115610e6557610e64610c6b565b5b610e7188828901610d77565b935050606086013567ffffffffffffffff811115610e9257610e91610c6b565b5b610e9e88828901610d77565b9250506080610eaf88828901610dbc565b9150509295509295909350565b600073ffffffffffffffffffffffffffffffffffffffff82169050919050565b6000610ee782610ebc565b9050919050565b610ef781610edc565b82525050565b6000602082019050610f126000830184610eee565b92915050565b600081519050610f2781610da5565b92915050565b600060208284031215610f4357610f42610c66565b5b6000610f5184828501610f18565b91505092915050565b7f4e487b7100000000000000000000000000000000000000000000000000000000600052602260045260246000fd5b60006002820490506001821680610fa157607f821691505b60208210811415610fb557610fb4610f5a565b5b50919050565b6000604082019050610fd06000830185610eee565b610fdd6020830184610a1b565b939250505056fea26469706673582212206fd9437c4a4f3d81f9b38fb1482dcecaaf1692d1c9e482fa578deea62dc2459464736f6c63430008090033",
  "devdoc": {
    "kind": "dev",
    "methods": {},
    "version": 1
  },
  "userdoc": {
    "kind": "user",
    "methods": {},
    "version": 1
  },
  "storageLayout": {
    "storage": [
      {
        "astId": 728,
        "contract": "contracts/Leafium.sol:Leafium",
        "label": "token",
        "offset": 0,
        "slot": "0",
        "type": "t_contract(LeafiumToken)884"
      },
      {
        "astId": 734,
        "contract": "contracts/Leafium.sol:Leafium",
        "label": "userToGateways",
        "offset": 0,
        "slot": "1",
        "type": "t_mapping(t_address,t_array(t_struct(Gateway)725_storage)dyn_storage)"
      },
      {
        "astId": 738,
        "contract": "contracts/Leafium.sol:Leafium",
        "label": "gateways",
        "offset": 0,
        "slot": "2",
        "type": "t_array(t_struct(Gateway)725_storage)dyn_storage"
      },
      {
        "astId": 746,
        "contract": "contracts/Leafium.sol:Leafium",
        "label": "reward",
        "offset": 0,
        "slot": "3",
        "type": "t_uint256"
      }
    ],
    "types": {
      "t_address": {
        "encoding": "inplace",
        "label": "address",
        "numberOfBytes": "20"
      },
      "t_array(t_struct(Gateway)725_storage)dyn_storage": {
        "base": "t_struct(Gateway)725_storage",
        "encoding": "dynamic_array",
        "label": "struct Leafium.Gateway[]",
        "numberOfBytes": "32"
      },
      "t_contract(LeafiumToken)884": {
        "encoding": "inplace",
        "label": "contract LeafiumToken",
        "numberOfBytes": "20"
      },
      "t_mapping(t_address,t_array(t_struct(Gateway)725_storage)dyn_storage)": {
        "encoding": "mapping",
        "key": "t_address",
        "label": "mapping(address => struct Leafium.Gateway[])",
        "numberOfBytes": "32",
        "value": "t_array(t_struct(Gateway)725_storage)dyn_storage"
      },
      "t_string_storage": {
        "encoding": "bytes",
        "label": "string",
        "numberOfBytes": "32"
      },
      "t_struct(Gateway)725_storage": {
        "encoding": "inplace",
        "label": "struct Leafium.Gateway",
        "members": [
          {
            "astId": 716,
            "contract": "contracts/Leafium.sol:Leafium",
            "label": "id",
            "offset": 0,
            "slot": "0",
            "type": "t_string_storage"
          },
          {
            "astId": 718,
            "contract": "contracts/Leafium.sol:Leafium",
            "label": "name",
            "offset": 0,
            "slot": "1",
            "type": "t_string_storage"
          },
          {
            "astId": 720,
            "contract": "contracts/Leafium.sol:Leafium",
            "label": "lat",
            "offset": 0,
            "slot": "2",
            "type": "t_string_storage"
          },
          {
            "astId": 722,
            "contract": "contracts/Leafium.sol:Leafium",
            "label": "long",
            "offset": 0,
            "slot": "3",
            "type": "t_string_storage"
          },
          {
            "astId": 724,
            "contract": "contracts/Leafium.sol:Leafium",
            "label": "altitude",
            "offset": 0,
            "slot": "4",
            "type": "t_uint256"
          }
        ],
        "numberOfBytes": "160"
      },
      "t_uint256": {
        "encoding": "inplace",
        "label": "uint256",
        "numberOfBytes": "32"
      }
    }
  }
}