{
  "address": "0x2b8080c244676b658f84D68eD72cE628bba86bA6",
  "abi": [
    {
      "inputs": [
        {
          "internalType": "address",
          "name": "tokenAddress",
          "type": "address"
        }
      ],
      "stateMutability": "nonpayable",
      "type": "constructor"
    },
    {
      "inputs": [
        {
          "internalType": "string",
          "name": "gatewayId",
          "type": "string"
        },
        {
          "internalType": "string",
          "name": "gatewayName",
          "type": "string"
        },
        {
          "internalType": "string",
          "name": "lat",
          "type": "string"
        },
        {
          "internalType": "string",
          "name": "long",
          "type": "string"
        },
        {
          "internalType": "uint256",
          "name": "altitude",
          "type": "uint256"
        }
      ],
      "name": "addGateway",
      "outputs": [],
      "stateMutability": "nonpayable",
      "type": "function"
    },
    {
      "inputs": [
        {
          "internalType": "string",
          "name": "gatewayId",
          "type": "string"
        }
      ],
      "name": "awake",
      "outputs": [],
      "stateMutability": "nonpayable",
      "type": "function"
    },
    {
      "inputs": [],
      "name": "getBalance",
      "outputs": [
        {
          "internalType": "uint256",
          "name": "",
          "type": "uint256"
        }
      ],
      "stateMutability": "view",
      "type": "function"
    },
    {
      "inputs": [],
      "name": "getGateways",
      "outputs": [
        {
          "components": [
            {
              "internalType": "string",
              "name": "id",
              "type": "string"
            },
            {
              "internalType": "string",
              "name": "name",
              "type": "string"
            },
            {
              "internalType": "string",
              "name": "lat",
              "type": "string"
            },
            {
              "internalType": "string",
              "name": "long",
              "type": "string"
            },
            {
              "internalType": "uint256",
              "name": "altitude",
              "type": "uint256"
            },
            {
              "internalType": "uint256",
              "name": "earnings",
              "type": "uint256"
            },
            {
              "internalType": "uint256",
              "name": "updatedAt",
              "type": "uint256"
            }
          ],
          "internalType": "struct Leafium.Gateway[]",
          "name": "",
          "type": "tuple[]"
        }
      ],
      "stateMutability": "view",
      "type": "function"
    },
    {
      "inputs": [],
      "name": "getMyGateways",
      "outputs": [
        {
          "components": [
            {
              "internalType": "string",
              "name": "id",
              "type": "string"
            },
            {
              "internalType": "string",
              "name": "name",
              "type": "string"
            },
            {
              "internalType": "string",
              "name": "lat",
              "type": "string"
            },
            {
              "internalType": "string",
              "name": "long",
              "type": "string"
            },
            {
              "internalType": "uint256",
              "name": "altitude",
              "type": "uint256"
            },
            {
              "internalType": "uint256",
              "name": "earnings",
              "type": "uint256"
            },
            {
              "internalType": "uint256",
              "name": "updatedAt",
              "type": "uint256"
            }
          ],
          "internalType": "struct Leafium.Gateway[]",
          "name": "",
          "type": "tuple[]"
        }
      ],
      "stateMutability": "view",
      "type": "function"
    },
    {
      "inputs": [
        {
          "internalType": "string",
          "name": "gatewayId",
          "type": "string"
        }
      ],
      "name": "removeGateway",
      "outputs": [],
      "stateMutability": "nonpayable",
      "type": "function"
    }
  ],
  "transactionHash": "0x4866b47b588186c93e594c6fc4f16a7f7bf4751282af99dc735fa0a4f6c5ba79",
  "args": [
    "0x25488D8cC927Ef51a301560F1D775fD10B84EfcF"
  ],
  "numDeployments": 1,
  "solcInputHash": "a85a97209eecc0b7fd79e0a3240193ff",
  "bytecode": "0x60806040526802b5e3af16b1880000600455670de0b6b3a76400006005553480156200002a57600080fd5b5060405162001ec738038062001ec7833981810160405281019062000050919062000101565b806000806101000a81548173ffffffffffffffffffffffffffffffffffffffff021916908373ffffffffffffffffffffffffffffffffffffffff1602179055505062000133565b600080fd5b600073ffffffffffffffffffffffffffffffffffffffff82169050919050565b6000620000c9826200009c565b9050919050565b620000db81620000bc565b8114620000e757600080fd5b50565b600081519050620000fb81620000d0565b92915050565b6000602082840312156200011a576200011962000097565b5b60006200012a84828501620000ea565b91505092915050565b611d8480620001436000396000f3fe608060405234801561001057600080fd5b50600436106100625760003560e01c806312065fe014610067578063741bf4a3146100855780638028c92e146100a3578063877d84b9146100bf578063d19a653a146100db578063d82778ce146100f7575b600080fd5b61006f610115565b60405161007c91906113d3565b60405180910390f35b61008d6101c6565b60405161009a9190611609565b60405180910390f35b6100bd60048036038101906100b89190611774565b6104c8565b005b6100d960048036038101906100d491906117e9565b6106f7565b005b6100f560048036038101906100f09190611774565b610a2d565b005b6100ff610dfc565b60405161010c9190611609565b60405180910390f35b60008060009054906101000a900473ffffffffffffffffffffffffffffffffffffffff1673ffffffffffffffffffffffffffffffffffffffff166370a08231336040518263ffffffff1660e01b81526004016101719190611915565b60206040518083038186803b15801561018957600080fd5b505afa15801561019d573d6000803e3d6000fd5b505050506040513d601f19601f820116820180604052508101906101c19190611945565b905090565b6060600160003373ffffffffffffffffffffffffffffffffffffffff1673ffffffffffffffffffffffffffffffffffffffff168152602001908152602001600020805480602002602001604051908101604052809291908181526020016000905b828210156104bf57838290600052602060002090600702016040518060e001604052908160008201805461025a906119a1565b80601f0160208091040260200160405190810160405280929190818152602001828054610286906119a1565b80156102d35780601f106102a8576101008083540402835291602001916102d3565b820191906000526020600020905b8154815290600101906020018083116102b657829003601f168201915b505050505081526020016001820180546102ec906119a1565b80601f0160208091040260200160405190810160405280929190818152602001828054610318906119a1565b80156103655780601f1061033a57610100808354040283529160200191610365565b820191906000526020600020905b81548152906001019060200180831161034857829003601f168201915b5050505050815260200160028201805461037e906119a1565b80601f01602080910402602001604051908101604052809291908181526020018280546103aa906119a1565b80156103f75780601f106103cc576101008083540402835291602001916103f7565b820191906000526020600020905b8154815290600101906020018083116103da57829003601f168201915b50505050508152602001600382018054610410906119a1565b80601f016020809104026020016040519081016040528092919081815260200182805461043c906119a1565b80156104895780601f1061045e57610100808354040283529160200191610489565b820191906000526020600020905b81548152906001019060200180831161046c57829003601f168201915b50505050508152602001600482015481526020016005820154815260200160068201548152505081526020019060010190610227565b50505050905090565b6000805b600160003373ffffffffffffffffffffffffffffffffffffffff1673ffffffffffffffffffffffffffffffffffffffff1681526020019081526020016000208054905081101561067b578280519060200120600160003373ffffffffffffffffffffffffffffffffffffffff1673ffffffffffffffffffffffffffffffffffffffff168152602001908152602001600020828154811061056f5761056e6119d3565b5b906000526020600020906007020160000160405161058d9190611aa1565b6040518091039020141561066857600191506105e7600160003373ffffffffffffffffffffffffffffffffffffffff1673ffffffffffffffffffffffffffffffffffffffff168152602001908152602001600020826110c1565b60005b60038054905081101561066257838051906020012060038281548110610613576106126119d3565b5b90600052602060002090600702016000016040516106319190611aa1565b6040518091039020141561064f5761064a6003826110c1565b610662565b808061065a90611ae7565b9150506105ea565b5061067b565b808061067390611ae7565b9150506104cc565b50806106bc576040517f08c379a00000000000000000000000000000000000000000000000000000000081526004016106b390611b8d565b60405180910390fd5b60006002836040516106ce9190611be9565b908152602001604051809103902060006101000a81548160ff0219169083151502179055505050565b6000151560028660405161070b9190611be9565b908152602001604051809103902060009054906101000a900460ff16151514610769576040517f08c379a000000000000000000000000000000000000000000000000000000000815260040161076090611c4c565b60405180910390fd5b60006040518060e001604052808781526020018681526020018581526020018481526020018381526020016032815260200160008152509050600381908060018154018082558091505060019003906000526020600020906007020160009091909190915060008201518160000190805190602001906107ea92919061124a565b50602082015181600101908051906020019061080792919061124a565b50604082015181600201908051906020019061082492919061124a565b50606082015181600301908051906020019061084192919061124a565b506080820151816004015560a0820151816005015560c08201518160060155505060016002876040516108749190611be9565b908152602001604051809103902060006101000a81548160ff021916908315150217905550600160003373ffffffffffffffffffffffffffffffffffffffff1673ffffffffffffffffffffffffffffffffffffffff168152602001908152602001600020819080600181540180825580915050600190039060005260206000209060070201600090919091909150600082015181600001908051906020019061091e92919061124a565b50602082015181600101908051906020019061093b92919061124a565b50604082015181600201908051906020019061095892919061124a565b50606082015181600301908051906020019061097592919061124a565b506080820151816004015560a0820151816005015560c08201518160060155505060008054906101000a900473ffffffffffffffffffffffffffffffffffffffff1673ffffffffffffffffffffffffffffffffffffffff1663f8b71c64336004546040518363ffffffff1660e01b81526004016109f3929190611c6c565b600060405180830381600087803b158015610a0d57600080fd5b505af1158015610a21573d6000803e3d6000fd5b50505050505050505050565b6000805b600160003373ffffffffffffffffffffffffffffffffffffffff1673ffffffffffffffffffffffffffffffffffffffff16815260200190815260200160002080549050811015610d28578280519060200120600160003373ffffffffffffffffffffffffffffffffffffffff1673ffffffffffffffffffffffffffffffffffffffff1681526020019081526020016000208281548110610ad457610ad36119d3565b5b9060005260206000209060070201600001604051610af29190611aa1565b60405180910390201415610d155760019150600060018060003373ffffffffffffffffffffffffffffffffffffffff1673ffffffffffffffffffffffffffffffffffffffff1681526020019081526020016000208381548110610b5857610b576119d3565b5b906000526020600020906007020160050154610b749190611c95565b9050600042905081600160003373ffffffffffffffffffffffffffffffffffffffff1673ffffffffffffffffffffffffffffffffffffffff1681526020019081526020016000208481548110610bcd57610bcc6119d3565b5b90600052602060002090600702016005018190555080600160003373ffffffffffffffffffffffffffffffffffffffff1673ffffffffffffffffffffffffffffffffffffffff1681526020019081526020016000208481548110610c3457610c336119d3565b5b90600052602060002090600702016006018190555060005b600380549050811015610d0d57858051906020012060038281548110610c7557610c746119d3565b5b9060005260206000209060070201600001604051610c939190611aa1565b60405180910390201415610cfa578260038281548110610cb657610cb56119d3565b5b9060005260206000209060070201600501819055508160038281548110610ce057610cdf6119d3565b5b906000526020600020906007020160060181905550610d0d565b8080610d0590611ae7565b915050610c4c565b505050610d28565b8080610d2090611ae7565b915050610a31565b5080610d69576040517f08c379a0000000000000000000000000000000000000000000000000000000008152600401610d6090611b8d565b60405180910390fd5b60008054906101000a900473ffffffffffffffffffffffffffffffffffffffff1673ffffffffffffffffffffffffffffffffffffffff1663f8b71c64336005546040518363ffffffff1660e01b8152600401610dc6929190611c6c565b600060405180830381600087803b158015610de057600080fd5b505af1158015610df4573d6000803e3d6000fd5b505050505050565b60606003805480602002602001604051908101604052809291908181526020016000905b828210156110b857838290600052602060002090600702016040518060e0016040529081600082018054610e53906119a1565b80601f0160208091040260200160405190810160405280929190818152602001828054610e7f906119a1565b8015610ecc5780601f10610ea157610100808354040283529160200191610ecc565b820191906000526020600020905b815481529060010190602001808311610eaf57829003601f168201915b50505050508152602001600182018054610ee5906119a1565b80601f0160208091040260200160405190810160405280929190818152602001828054610f11906119a1565b8015610f5e5780601f10610f3357610100808354040283529160200191610f5e565b820191906000526020600020905b815481529060010190602001808311610f4157829003601f168201915b50505050508152602001600282018054610f77906119a1565b80601f0160208091040260200160405190810160405280929190818152602001828054610fa3906119a1565b8015610ff05780601f10610fc557610100808354040283529160200191610ff0565b820191906000526020600020905b815481529060010190602001808311610fd357829003601f168201915b50505050508152602001600382018054611009906119a1565b80601f0160208091040260200160405190810160405280929190818152602001828054611035906119a1565b80156110825780601f1061105757610100808354040283529160200191611082565b820191906000526020600020905b81548152906001019060200180831161106557829003601f168201915b50505050508152602001600482015481526020016005820154815260200160068201548152505081526020019060010190610e20565b50505050905090565b818054905081106110d157600080fd5b81600183805490506110e39190611ceb565b815481106110f4576110f36119d3565b5b9060005260206000209060070201828281548110611115576111146119d3565b5b90600052602060002090600702016000820181600001908054611137906119a1565b6111429291906112d0565b506001820181600101908054611157906119a1565b6111629291906112d0565b506002820181600201908054611177906119a1565b6111829291906112d0565b506003820181600301908054611197906119a1565b6111a29291906112d0565b50600482015481600401556005820154816005015560068201548160060155905050818054806111d5576111d4611d1f565b5b6001900381819060005260206000209060070201600080820160006111fa919061135d565b60018201600061120a919061135d565b60028201600061121a919061135d565b60038201600061122a919061135d565b600482016000905560058201600090556006820160009055505090555050565b828054611256906119a1565b90600052602060002090601f01602090048101928261127857600085556112bf565b82601f1061129157805160ff19168380011785556112bf565b828001600101855582156112bf579182015b828111156112be5782518255916020019190600101906112a3565b5b5090506112cc919061139d565b5090565b8280546112dc906119a1565b90600052602060002090601f0160209004810192826112fe576000855561134c565b82601f1061130f578054855561134c565b8280016001018555821561134c57600052602060002091601f016020900482015b8281111561134b578254825591600101919060010190611330565b5b509050611359919061139d565b5090565b508054611369906119a1565b6000825580601f1061137b575061139a565b601f016020900490600052602060002090810190611399919061139d565b5b50565b5b808211156113b657600081600090555060010161139e565b5090565b6000819050919050565b6113cd816113ba565b82525050565b60006020820190506113e860008301846113c4565b92915050565b600081519050919050565b600082825260208201905092915050565b6000819050602082019050919050565b600081519050919050565b600082825260208201905092915050565b60005b83811015611454578082015181840152602081019050611439565b83811115611463576000848401525b50505050565b6000601f19601f8301169050919050565b60006114858261141a565b61148f8185611425565b935061149f818560208601611436565b6114a881611469565b840191505092915050565b6114bc816113ba565b82525050565b600060e08301600083015184820360008601526114df828261147a565b915050602083015184820360208601526114f9828261147a565b91505060408301518482036040860152611513828261147a565b9150506060830151848203606086015261152d828261147a565b915050608083015161154260808601826114b3565b5060a083015161155560a08601826114b3565b5060c083015161156860c08601826114b3565b508091505092915050565b600061157f83836114c2565b905092915050565b6000602082019050919050565b600061159f826113ee565b6115a981856113f9565b9350836020820285016115bb8561140a565b8060005b858110156115f757848403895281516115d88582611573565b94506115e383611587565b925060208a019950506001810190506115bf565b50829750879550505050505092915050565b600060208201905081810360008301526116238184611594565b905092915050565b6000604051905090565b600080fd5b600080fd5b600080fd5b600080fd5b7f4e487b7100000000000000000000000000000000000000000000000000000000600052604160045260246000fd5b61168182611469565b810181811067ffffffffffffffff821117156116a05761169f611649565b5b80604052505050565b60006116b361162b565b90506116bf8282611678565b919050565b600067ffffffffffffffff8211156116df576116de611649565b5b6116e882611469565b9050602081019050919050565b82818337600083830152505050565b6000611717611712846116c4565b6116a9565b90508281526020810184848401111561173357611732611644565b5b61173e8482856116f5565b509392505050565b600082601f83011261175b5761175a61163f565b5b813561176b848260208601611704565b91505092915050565b60006020828403121561178a57611789611635565b5b600082013567ffffffffffffffff8111156117a8576117a761163a565b5b6117b484828501611746565b91505092915050565b6117c6816113ba565b81146117d157600080fd5b50565b6000813590506117e3816117bd565b92915050565b600080600080600060a0868803121561180557611804611635565b5b600086013567ffffffffffffffff8111156118235761182261163a565b5b61182f88828901611746565b955050602086013567ffffffffffffffff8111156118505761184f61163a565b5b61185c88828901611746565b945050604086013567ffffffffffffffff81111561187d5761187c61163a565b5b61188988828901611746565b935050606086013567ffffffffffffffff8111156118aa576118a961163a565b5b6118b688828901611746565b92505060806118c7888289016117d4565b9150509295509295909350565b600073ffffffffffffffffffffffffffffffffffffffff82169050919050565b60006118ff826118d4565b9050919050565b61190f816118f4565b82525050565b600060208201905061192a6000830184611906565b92915050565b60008151905061193f816117bd565b92915050565b60006020828403121561195b5761195a611635565b5b600061196984828501611930565b91505092915050565b7f4e487b7100000000000000000000000000000000000000000000000000000000600052602260045260246000fd5b600060028204905060018216806119b957607f821691505b602082108114156119cd576119cc611972565b5b50919050565b7f4e487b7100000000000000000000000000000000000000000000000000000000600052603260045260246000fd5b600081905092915050565b60008190508160005260206000209050919050565b60008154611a2f816119a1565b611a398186611a02565b94506001821660008114611a545760018114611a6557611a98565b60ff19831686528186019350611a98565b611a6e85611a0d565b60005b83811015611a9057815481890152600182019150602081019050611a71565b838801955050505b50505092915050565b6000611aad8284611a22565b915081905092915050565b7f4e487b7100000000000000000000000000000000000000000000000000000000600052601160045260246000fd5b6000611af2826113ba565b91507fffffffffffffffffffffffffffffffffffffffffffffffffffffffffffffffff821415611b2557611b24611ab8565b5b600182019050919050565b600082825260208201905092915050565b7f47617465776179206e6f7420666f756e64210000000000000000000000000000600082015250565b6000611b77601283611b30565b9150611b8282611b41565b602082019050919050565b60006020820190508181036000830152611ba681611b6a565b9050919050565b600081905092915050565b6000611bc38261141a565b611bcd8185611bad565b9350611bdd818560208601611436565b80840191505092915050565b6000611bf58284611bb8565b915081905092915050565b7f4761746577617920616c72656164792072656769737465726564210000000000600082015250565b6000611c36601b83611b30565b9150611c4182611c00565b602082019050919050565b60006020820190508181036000830152611c6581611c29565b9050919050565b6000604082019050611c816000830185611906565b611c8e60208301846113c4565b9392505050565b6000611ca0826113ba565b9150611cab836113ba565b9250827fffffffffffffffffffffffffffffffffffffffffffffffffffffffffffffffff03821115611ce057611cdf611ab8565b5b828201905092915050565b6000611cf6826113ba565b9150611d01836113ba565b925082821015611d1457611d13611ab8565b5b828203905092915050565b7f4e487b7100000000000000000000000000000000000000000000000000000000600052603160045260246000fdfea26469706673582212204a9f6d99c99f8c64b18a24b281b8acfce280244c0978a953edb6860c9f53a03964736f6c63430008090033",
  "devdoc": {
    "kind": "dev",
    "methods": {},
    "version": 1
  },
  "userdoc": {
    "kind": "user",
    "methods": {},
    "version": 1
  },
  "storageLayout": {
    "storage": [
      {
        "astId": 732,
        "contract": "contracts/Leafium.sol:Leafium",
        "label": "token",
        "offset": 0,
        "slot": "0",
        "type": "t_contract(LeafiumToken)1206"
      },
      {
        "astId": 738,
        "contract": "contracts/Leafium.sol:Leafium",
        "label": "userToGateways",
        "offset": 0,
        "slot": "1",
        "type": "t_mapping(t_address,t_array(t_struct(Gateway)729_storage)dyn_storage)"
      },
      {
        "astId": 742,
        "contract": "contracts/Leafium.sol:Leafium",
        "label": "gatewayExists",
        "offset": 0,
        "slot": "2",
        "type": "t_mapping(t_string_memory_ptr,t_bool)"
      },
      {
        "astId": 746,
        "contract": "contracts/Leafium.sol:Leafium",
        "label": "gateways",
        "offset": 0,
        "slot": "3",
        "type": "t_array(t_struct(Gateway)729_storage)dyn_storage"
      },
      {
        "astId": 754,
        "contract": "contracts/Leafium.sol:Leafium",
        "label": "reward",
        "offset": 0,
        "slot": "4",
        "type": "t_uint256"
      },
      {
        "astId": 762,
        "contract": "contracts/Leafium.sol:Leafium",
        "label": "awakeReward",
        "offset": 0,
        "slot": "5",
        "type": "t_uint256"
      }
    ],
    "types": {
      "t_address": {
        "encoding": "inplace",
        "label": "address",
        "numberOfBytes": "20"
      },
      "t_array(t_struct(Gateway)729_storage)dyn_storage": {
        "base": "t_struct(Gateway)729_storage",
        "encoding": "dynamic_array",
        "label": "struct Leafium.Gateway[]",
        "numberOfBytes": "32"
      },
      "t_bool": {
        "encoding": "inplace",
        "label": "bool",
        "numberOfBytes": "1"
      },
      "t_contract(LeafiumToken)1206": {
        "encoding": "inplace",
        "label": "contract LeafiumToken",
        "numberOfBytes": "20"
      },
      "t_mapping(t_address,t_array(t_struct(Gateway)729_storage)dyn_storage)": {
        "encoding": "mapping",
        "key": "t_address",
        "label": "mapping(address => struct Leafium.Gateway[])",
        "numberOfBytes": "32",
        "value": "t_array(t_struct(Gateway)729_storage)dyn_storage"
      },
      "t_mapping(t_string_memory_ptr,t_bool)": {
        "encoding": "mapping",
        "key": "t_string_memory_ptr",
        "label": "mapping(string => bool)",
        "numberOfBytes": "32",
        "value": "t_bool"
      },
      "t_string_memory_ptr": {
        "encoding": "bytes",
        "label": "string",
        "numberOfBytes": "32"
      },
      "t_string_storage": {
        "encoding": "bytes",
        "label": "string",
        "numberOfBytes": "32"
      },
      "t_struct(Gateway)729_storage": {
        "encoding": "inplace",
        "label": "struct Leafium.Gateway",
        "members": [
          {
            "astId": 716,
            "contract": "contracts/Leafium.sol:Leafium",
            "label": "id",
            "offset": 0,
            "slot": "0",
            "type": "t_string_storage"
          },
          {
            "astId": 718,
            "contract": "contracts/Leafium.sol:Leafium",
            "label": "name",
            "offset": 0,
            "slot": "1",
            "type": "t_string_storage"
          },
          {
            "astId": 720,
            "contract": "contracts/Leafium.sol:Leafium",
            "label": "lat",
            "offset": 0,
            "slot": "2",
            "type": "t_string_storage"
          },
          {
            "astId": 722,
            "contract": "contracts/Leafium.sol:Leafium",
            "label": "long",
            "offset": 0,
            "slot": "3",
            "type": "t_string_storage"
          },
          {
            "astId": 724,
            "contract": "contracts/Leafium.sol:Leafium",
            "label": "altitude",
            "offset": 0,
            "slot": "4",
            "type": "t_uint256"
          },
          {
            "astId": 726,
            "contract": "contracts/Leafium.sol:Leafium",
            "label": "earnings",
            "offset": 0,
            "slot": "5",
            "type": "t_uint256"
          },
          {
            "astId": 728,
            "contract": "contracts/Leafium.sol:Leafium",
            "label": "updatedAt",
            "offset": 0,
            "slot": "6",
            "type": "t_uint256"
          }
        ],
        "numberOfBytes": "224"
      },
      "t_uint256": {
        "encoding": "inplace",
        "label": "uint256",
        "numberOfBytes": "32"
      }
    }
  }
}